:020000040800F2
:10000000E8160020210200080F110008690E000800
:100010000D1100088B0300083D15000800000000CA
:10002000000000000000000000000000890100083E
:10003000A503000800000000CD010008F912000827
:100040003B0200083B0200083B0200083B0200089C
:100050003B0200083B0200083B0200083B0200088C
:100060003B0200083B0200083B0200083B0200087C
:100070003B0200083B0200083B0200083B0200086C
:100080003B0200083B0200083B0200083B0200085C
:100090003B0200083B0200083B0200083B0200084C
:1000A0003B0200083B0200083B0200083B0200083C
:1000B0003B0200083B0200083B0200083B0200082C
:1000C0003B0200083B0200083B0200083B0200081C
:1000D0003B0200083B0200083B0200083B0200080C
:1000E0003B0200083B0200083B02000800F002F857
:1000F00000F03AF80AA090E8000C82448344AAF188
:100100000107DA4501D100F02FF8AFF2090EBAE885
:100110000F0013F0010F18BFFB1A43F0010318473B
:100120009C230000BC230000103A24BF78C878C18B
:10013000FAD8520724BF30C830C144BF04680C60ED
:10014000704700000023002400250026103A28BF35
:1001500078C1FBD8520728BF30C148BF0B60704739
:100160001FB51FBD10B510BD00F0D6F81146FFF742
:10017000F7FF01F003FA00F0F4F803B4FFF7F2FF21
:1001800003BC00F0FBF80000224B19680868B0E8D7
:10019000F00F80F30988BFF36F8F4FF0000080F3FA
:1001A00011884EF00D0E70470000000006480068F0
:1001B000006880F3088862B661B6BFF34F8FBFF363
:1001C0006F8F00DF00BF00BF08ED00E0EFF3098094
:1001D000BFF36F8F0F4B1A6820E9F00F106008B55E
:1001E0004FF0500080F31188BFF34F8FBFF36F8F34
:1001F00001F08EFD4FF0000080F31188BDE808404B
:1002000019680868B0E8F00F80F30988BFF36F8FB2
:10021000704700BF1C000020EFF30580704700000E
:100220000948804709480047FEE7FEE7FEE7FEE78A
:10023000FEE7FEE7FEE7FEE7FEE7FEE704480549C6
:10024000054A064B704700006F130008ED000008D8
:10025000E8100020E8160020E8120020E812002034
:1002600010B5203AC0F00B80B1E81850203AA0E851
:100270001850B1E81850A0E81850BFF4F5AF5FEA85
:10028000027C24BFB1E81850A0E8185044BF18C938
:1002900018C0BDE810405FEA827C24BF51F8043BDF
:1002A00040F8043B08BF7047D20728BF31F8023B33
:1002B00048BF11F8012B28BF20F8023B48BF00F8C7
:1002C000012B70474FF0000200B513469446964646
:1002D000203922BFA0E80C50A0E80C50B1F1200159
:1002E000BFF4F7AF090728BFA0E80C5048BF0CC007
:1002F0005DF804EB890028BF40F8042B08BF704765
:1003000048BF20F8022B11F0804F18BF00F8012BD6
:100310007047704770477047754600F02BF8AE463F
:1003200005006946534620F00700854618B020B501
:10033000FFF784FFBDE820404FF000064FF00007B4
:100340004FF000084FF0000B21F00701AC46ACE87D
:10035000C009ACE8C009ACE8C009ACE8C0098D46EA
:10036000704710B50446AFF300802046BDE810404A
:10037000FFF703BF00487047841000200149182090
:10038000ABBEFEE7260002007047FEE7044800F01F
:100390006CFD034800F0A8FD012001F03BF9F5E7F2
:1003A0005C1000207047000070B5044600F008F9AA
:1003B0000546601C02D004480078044400F000F9AF
:1003C000401BA042FAD370BD0C0000202DE9F84F6D
:1003D000DFF8B8910024A9F1040B23460F2709F197
:1003E000040AABF1040EC9E00125A5402A40AA4247
:1003F0007DD1674ED1F804C0ACEB0608B44532D0CD
:1004000014DCBCF1030F3AD009DCBCF1000F2AD098
:10041000BCF1010F1CD0BCF1020F31D11DE0BCF1C9
:10042000110F17D0BCF1120F2AD119E0B8F5881FAF
:1004300019D006DCB8F5803F15D0B8F5801F1FD164
:1004400011E0B8F5001F0ED0B8F5041F18D10AE06E
:10045000CB6815E0CB681B1D12E0CB6808330FE0BA
:10046000CB680C330CE08B682BB1012B4FF00803E9
:1004700003D0456104E0042302E0056100E00023AD
:10048000FF2A01D8064601E000F104064FEA840580
:1004900001D9A5F12005D6F8008007FA05FC28EA65
:1004A0000C0803FA05F548EA0508C6F800804D680F
:1004B000ED0062D5374DAE6946F00106AE61AD691B
:1004C00024F0030605F001050095334D06EB050CFD
:1004D000DCF80850A607360F07FA06F825EA0805E3
:1004E000DFF8B880404503D14FF0000817E044E042
:1004F000DFF8AC80404502D14FF001080FE0DFF893
:10050000A480404502D14FF0020808E0DFF898804F
:10051000404502D14FF0030801E04FF0040808FA0B
:1005200006F848EA0508CCF808804D68D9F800605C
:10053000ED024D4601D5164300E096432E604D680E
:10054000DAF80060AD02554601D5164300E0964347
:100550002E604D68DBF80060AD035D4601D51643A3
:1005600000E096432E604D68DEF80060ED037546AE
:1005700001D5164300E096432E60641C0D682A46A0
:10058000E5407FF431AFBDE8F88F0000080401407A
:10059000000011100010024000000140000801405E
:1005A000000C014000100140001401408068084028
:1005B00000D0012070470AB1016170470904FBE7D0
:1005C00001488068704700000C00002002488168E4
:1005D00002781144816070470C000020074810B574
:1005E000016841F010010160032000F063F80F2062
:1005F00000F006F800F024F8002010BD00200240B2
:1006000070B50D4D04464FF47A712878B1FBF0F0C7
:100610000A490968B1FBF0F000F0B0FA48B9102CB3
:1006200007D200222146501E00F024F800206C6002
:1006300070BD012070BD00000C00002018000020DB
:100640000B4882B0816941F001018161816901F04B
:1006500001010091C16941F08051C161C06900226E
:1006600000F0805000900F21901E02B000F002B800
:1006700000100240F0B40E4B1B680C46C3F302237B
:10068000C3F10705042D00D90425191D072901D23E
:10069000002300E0DB1E012606FA05F1491E214079
:1006A00099409E40761E16403143F0BC00F047BF93
:1006B0000CED00E0064900F0070208684FF6FF0362
:1006C000184040EA0220034A1043086070470000C7
:1006D0000CED00E00000FA052DE9F0470F4605009B
:1006E00061D0434E306800F00700B84209D230684C
:1006F00020F0070038433060306800F00700B8424F
:1007000051D128683B4C810712D5400703D560685A
:1007100040F4E06060602878000703D5606840F42A
:10072000605060606068A96820F0F0000843606075
:100730002878C00728D06868012810D021680228CE
:1007400010D0890700292EDA616821F003010143E6
:100750006160FFF735FF804641F288390DE021687E
:100760008903EFE78901EDE7FFF72AFFA0EB080116
:10077000494502D90320BDE8F0876068696800F048
:100780000C00B0EB810FEFD1306800F00700B842E9
:100790000BD9306820F0070038433060306800F033
:1007A0000700B84201D00120E5E72878400705D5C9
:1007B0006068E96820F4E06008436060287800071A
:1007C00006D56068296920F4605040EAC100606085
:1007D00000F01EF86168084AC1F30311515CC8407B
:1007E0000649086006480068FFF70AFF0020C2E7D4
:1007F000002002400010024082240008180000205F
:100800001000002001480068704700001800002018
:100810000E4A51680E4801F00C03042B11D0082B2E
:100820000FD10C48C1F38343C903C05C0AD551689A
:10083000084AC1F34041921E515C054A5043B0FB47
:10084000F1F070470449484370470000001002402F
:1008500000127A007224000800093D002DE9F84FCB
:10086000040070D02078C04DC00749D06868C0F33C
:100870008100012807D06868C0F38100022809D1EF
:100880006868C00306D52868800339D560680028E9
:10089000E7D035E06068B0F5803F0BD010B1B0F51F
:1008A000A02F11D0286820F480302860286820F418
:1008B000802002E0286840F480302860606890B1B1
:1008C000FFF77EFE06460AE0286840F48020286094
:1008D000F0E700BFFFF774FE801B642873D8286818
:1008E0008003F7D50CE0FFF76BFE064605E000BF7E
:1008F000FFF766FE801B6428F0D828688003F7D4D1
:1009000020789A4E80074FF001094FF0000839D542
:10091000686810F00C0F07D06868C0F381000228E7
:1009200009D16868C00306D42868800714D52069F7
:10093000012808D110E02069B0B1C6F80090FFF797
:100940003FFE074605E00AE1FFF73AFEC01B02281A
:10095000C4D828688007F7D52868616920F0F800B6
:1009600040EAC10028600DE0C6F80080FFF728FECD
:10097000074604E0FFF724FEC01B022823D828689E
:100980008007F7D4207800072CD57948A169D9B120
:10099000C0F80090FFF714FE074604E0FFF710FED2
:1009A000C01B02280FD8686A8007F7D571484FF43A
:1009B000FA510068B0FBF1F0009000BF0098411EB2
:1009C0000091FAD20EE080E0C0F80080FFF7F8FD59
:1009D000074604E0FFF7F4FDC01B022875D8686ADB
:1009E0008007F7D42078400760D5E8690027C00069
:1009F00008D4E86940F08050E861E869012700F018
:100A0000805000905C480168C90513D40168834692
:100A100041F480710160FFF7D3FD824606E000BF1C
:100A2000FFF7CEFDA0EB0A0064284ED8DBF80000EB
:100A3000C005F5D5E06801280AD008B1052813D013
:100A4000286A20F001002862286A20F0040002E0F1
:100A5000286A40F001002862E06841F2883B98B1C2
:100A6000FFF7AEFD82460BE0286A40F004002862E2
:100A7000EEE700BFFFF7A4FDA0EB0A0159455AD8E5
:100A8000286A8007F6D50CE0FFF79AFD824605E05C
:100A9000FFF796FDA0EB0A0159454CD8286A80075C
:100AA000F6D41FB1E86920F08050E861E06988B3AE
:100AB0006968C1F38101022944D00228C6F8608028
:100AC00004D0FFF77DFD044638E034E0FFF778FD01
:100AD000074604E0FFF774FDC01B02282BD82868E6
:100AE0008001F7D4206AB0F5803F05D16868A1681D
:100AF00020F4003008436860D4E9080108436968BD
:100B000021F4741108436860C6F86090FFF758FD3F
:100B1000044606E025E000BFFFF752FD001B022857
:100B200009D828688001F7D51BE000BFFFF748FD12
:100B3000001B022802D90320BDE8F88F2868800135
:100B4000F4D40EE00128F7D06868226A00F48031FE
:100B5000914204D1616A00F47010884201D00120F2
:100B6000EAE70020E8E700000010024000004242EF
:100B700080044242180000200070004010B5401E62
:100B8000B0F1807F01D3012010BD4FF0E0246061FF
:100B90000F21601700F0D3FC0020A0610720206126
:100BA000002010BD70B590F83C20012A26D0012409
:100BB00080F83C40022280F83D2003685A689D6816
:100BC00022F070060A6832435A600D4B02689A425E
:100BD00008D0B2F1804F05D00A4B9A4202D00A4B9E
:100BE0009A4204D1496825F080031943916080F846
:100BF0003D40002180F83C10084670BD022070BDC9
:100C0000002C0140000400400008004010B586B0F0
:100C100000210091019102910391006813498842DB
:100C200021D11348816941F004018161816901F09A
:100C300004010491816941F0080181618069022405
:100C400000F008000490C020CDE90004694609487E
:100C50000394FFF7BBFB0320CDE900046946064877
:100C60000394FFF7B3FB06B010BD00000004004082
:100C70000010024000080140000C014070B504461D
:100C800090F83C0000260D4601280FD0012084F882
:100C90003C006AB1042A1DD0082A2FD00C2A3FD06C
:100CA0000126002084F83C00304670BD022070BD53
:100CB000206800F0A1FB2068816941F00801816192
:100CC0002068816921F004018161206881692A69B5
:100CD000114311E0206800F0B7FB2068816941F4FE
:100CE000006181612068816921F4806181612068EF
:100CF00081692A6941EA02218161D2E7206800F016
:100D0000CFFB2068C16941F00801C1612068C16959
:100D100021F00401C1612068C1692A69114311E011
:100D2000206800F0E9FB2068C16941F40061C161FD
:100D30002068C16921F48061C1612068C1692A69A4
:100D400041EA0221C161ACE710B5040003D094F878
:100D50003D0010B107E0012010BD002084F83C00E8
:100D6000204600F01FF8022084F83D00211D206875
:100D700000F0FEFA012084F8460084F83E0084F872
:100D80003F0084F8400084F8410084F8420084F871
:100D9000430084F8440084F8450084F83D000020B6
:100DA00010BD000008B500680649884208D1064811
:100DB000C16941F00201C161C06900F00200009008
:100DC00008BD0000000400400010024010B50446B9
:100DD000022249B104290ED0082913D094F8410009
:100DE000012816D0012010BD94F83E000128F9D149
:100DF00084F83E200FE094F83F000128F2D184F8F7
:100E00003F2008E094F840000128EBD184F840200E
:100E100001E084F841200122206800F0DFFA0F4948
:100E20002068884203D1426C42F400424264206848
:100E3000884208D0B0F1804F05D00949884202D0DD
:100E40000849884204D1816801F00701062903D0CE
:100E5000016841F001010160002010BD002C01403B
:100E60000004004000080040FEE770B54588018896
:100E700084886E18A21B13B26A1A491B22442144AB
:100E8000438112B2428209B23444418324B2448481
:100E90004FF0FF35002B01DA2E4600E001260672E6
:100EA000002A01DA2E4600E001260674002901DA44
:100EB0002E4600E0012676420676002C00DB012556
:100EC0006D4280F82050002B00DA5B42C360002A9C
:100ED00000DA52424261002900DA4942C161002C25
:100EE00000DA6442446270BD2DE9F0470446C068F0
:100EF00001F0B4F9DFF8B080414601F0CDF8DFF839
:100F0000AC90494601F0BEF901F088F9284D2968F6
:100F10004863284E284F4FF4006196F90800C20F2D
:100F20003846FFF748FB606901F098F9414601F047
:100F3000B3F8494601F0A6F901F070F92968886311
:100F400096F91000B914C20F3846FFF734FBE06978
:100F500001F084F9414601F09FF8494601F092F909
:100F600001F05CF92968C86396F91800134FC20FA5
:100F70004FF480413846FFF71EFB606A01F06EF9BE
:100F8000414601F089F8494601F07CF901F046F943
:100F90002968086496F920004FF40041C20F3846D2
:100FA000BDE8F047FFF707BB0000C842004003451B
:100FB000C40000205C10002000080140000C01402B
:100FC0002DE9F04786B0002425480094019402944E
:100FD0000394816941F020018161816901F0200160
:100FE0000491816941F004018161816901F004018A
:100FF0000491816941F0080181618069DFF86490A2
:1010000000F0080041F632070490002239464846B5
:10101000FFF7D1FADFF850A04FF4404800224146D4
:101020005046FFF7C8FA0125CDE90054022669466B
:1010300048460296FFF7CAF900970396CDE9015496
:1010400069464846FFF7C2F9CDF800800396CDE91E
:10105000015469465046FFF7B9F906B0BDE8F0877C
:101060000010024000080140000C014010B58AB099
:10107000002407941C2168460894FFF723F92248AE
:101080002049C0E9001440F2A151C0E902410461C5
:101090008461FFF759FE08B172B6FEE7079407A90D
:1010A00019480894FFF77EFD08B172B6FEE760208C
:1010B000CDE9000402940022694613480494FFF726
:1010C000DDFD08B172B6FEE7042269460E48FFF75F
:1010D000D5FD08B172B6FEE7082269460A48FFF757
:1010E000CDFD08B172B6FEE70C2269460648FFF74F
:1010F000C5FD08B172B6FEE70348FFF787FD0AB0E9
:1011000010BD000000040040C4000020FEE7FEE720
:101110000149085C7047000050100020002004497D
:1011200002460A54401CC0B20928FAD37047000096
:1011300050100020F8B5054601201B4C00900020FF
:101140001A4E60700098284201D0012200E000226F
:1011500002213046FFF72FFA012220213046FFF707
:101160002AFA052000F0FCF9002220213046FFF782
:1011700022FA052000F0F4F9012220213046FFF781
:101180001AFA01213046FFF711FA18B16078009978
:1011900008436070009840000090FF28D2D9BDE855
:1011A000F840102000F0DCB9501000200008014089
:1011B0007CB500208DF80000294D01260246102143
:1011C00028460196FFF7F7F9264C2078FFF7B2FF83
:1011D0006078FFF7AFFF02208DF80000224C32E06C
:1011E0006078412833D00196012220212846FFF75C
:1011F000E2F9052000F0B4F9002220212846FFF78B
:10120000DAF9052000F0ACF9012220212846FFF789
:10121000D2F901212846FFF7C9F938B19DF800003D
:101220000199205C08439DF800106054019840002B
:101230000190FF28D8D90A2000F092F99DF800000B
:10124000401C8DF800009DF800000928C8D302B0AA
:101250002846BDE8704001221021FFF7ACB900001C
:10126000000801407C0000205010002070B50D4D9A
:10127000002210212846FFF79EF90B4C2078FFF73B
:1012800059FF6078FFF756FF012210212846FFF72B
:1012900092F906484078732801D0012070BD0020E3
:1012A00070BD0000000801407C00002050100020AC
:1012B0000E4C00BFFFF7DAFF88B9FFF779FF052072
:1012C000FFF726FF803820800820FFF721FF7F38B6
:1012D000404260800720FFF71BFF8038A080FFF7A7
:1012E0001DFF0520FFF760F8E4E700005C10002018
:1012F000012000F08FF9FBE710B5FFF767F900F068
:10130000F7FD012803D0BDE8104000F083BD10BDFB
:1013100030B58FB028216846FEF7D4FF14210AA803
:10132000FEF7D0FF01210804CDE90010002402944B
:1013300002250491CDE907504FF4E010099068466A
:10134000FFF78CFA08B172B6FEE70F20CDE90A0567
:101350004FF48060CDE90C4002210AA80E94FFF7FB
:10136000BBF9002801D072B6FEE70FB030BD704760
:10137000F0B50268164B174C174D4FF08047984256
:1013800005D0B84203D0A04201D0A84203D122F038
:1013900070064A683243984205D0B84203D0A04252
:1013A00001D0A84203D122F44074CA6822434C6998
:1013B00022F08002224302608A68C2620A68826266
:1013C000984201D10969016301214161F0BD00002A
:1013D000002C0140000400400008004010B501F05E
:1013E0001F030121046A99408C430462016A9A40F8
:1013F0001143016210BD000030B5036A026A22F099
:10140000010202624268846924F073050C682C436F
:1014100023F002058B682B430A4DA8420BD123F021
:101420000805CB6822F440722B434D6923F0040376
:1014300015438A692A4342608461496841630362B3
:1014400030BD0000002C014030B5026A036A23F071
:1014500010030362436884690D6824F4E64444EA97
:1014600005248D6822F0200242EA05120B4DA842A5
:101470000ED1CD6822F0800242EA05124D6923F4B4
:10148000406343EA85038D6922F0400243EA850305
:101490004360846149688163026230BD002C014071
:1014A00030B5036A026A22F4807202624268C4693B
:1014B00023F4007324F073050C682C438D6843EA11
:1014C00005230C4DA8420ED1CD6823F4006343EAF6
:1014D00005234D6922F4405242EA05128D6923F436
:1014E000806342EA05124260C4614968C1630362D5
:1014F00030BD0000002C014030B5046A026A22F4BD
:10150000805202624268C3690D6823F4E64343EAED
:1015100005238D6824F4005444EA0534064DA8429E
:1015200004D14D6922F4804242EA85124260C361CF
:1015300049680164046230BD002C0140FEE70907E0
:10154000090E002804DB00F1E02080F80014704749
:1015500000F00F0000F1E02080F8141D704700003B
:1015600010B50446FFF74EF90349B0FBF1F16143B2
:10157000491EFDD210BD000000093D0096B0FFF7E6
:101580002DF8FFF7C5FEFFF71BFDFFF76FFD1B48AA
:10159000FFF7DAFB00211948FFF718FC0421174870
:1015A000FFF714FC08211548FFF710FC0C21134825
:1015B000FFF70CFC1C2212496846FEF751FE002181
:1015C000684600F033F80F4C0D491C2220601C3196
:1015D00007A8FEF745FE002107A800F027F80849F4
:1015E00060601C2238310EA8FEF73AFE00210EA8DA
:1015F00000F01CF8A06000F014F8FEE7C400002022
:101600001C2400080000002001460020842900D08E
:10161000C81C704710B500B9012000F015FB002070
:1016200010BD10B500F036FB002010BD7FB50D4693
:1016300004464169B0F9080081B1A16971B1FFF7B1
:10164000E3FFD4E905128DE80700D4E900102B462A
:10165000226900F022FC039004B070BDFFF7D4FFB4
:1016600003A9CDE90001208A2B4682B2D4E90010FB
:1016700000F0E6FB012801D00020EDE70398EBE73E
:101680002DE9F041184C0F46054666692068001D9B
:1016900000F016FA38B9206890F82C100120884024
:1016A000A1698143A161681C07D137B12168BDE8F8
:1016B000F0410E48091D00F047BA20683544B54294
:1016C0004560216805D2A068BDE8F041091D00F021
:1016D00023BA6068091D00F01FFA206B854200D212
:1016E0002563BDE8F08100001C0000203C040020C0
:1016F0002DE9F041054600F033FA2E4C2069401CDC
:10170000206120682C4F10B1E06940B32DE02560C6
:101710002069012829D1002606EB860007EB80000E
:1017200000F0ECF9761C072EF6D323488C3000F03D
:10173000E5F92148A03000F0E1F91F48B43000F08D
:10174000DDF91D48C83000F0D9F91B48DC3000F045
:10175000D5F919488C3060601430A06005E020682D
:10176000E96AC06A884200D82560E06A401CE062ED
:10177000E96A0120A26988401043A06101EB810061
:1017800007EB8000291D00F0DFF900F009FAE0699D
:1017900000280CD02068E96AC06A884207D207494D
:1017A0004FF080500860BFF34F8FBFF36F8FBDE8DD
:1017B000F08100001C0000206003002004ED00E028
:1017C00010B5044690F8510058B101280CD00228F9
:1017D0000FD0502080F31188BFF34F8FBFF36F8F6E
:1017E000FEE7206B00F0F0F92046BDE8104000F065
:1017F000EBB910BD10484FF44061420706D0C01D40
:101800000D4920F00700411AC1F540610B4A002341
:101810000144C2E900030839103A21F007011160C0
:101820004B600B600B1AC0E9001393604FF000404F
:101830005360D06070470000500400206800002012
:10184000144E154CA6F1C8074FF08058DFF84C90A5
:1018500012E000BF00F084F9F068C568281D00F0B0
:101860002FF92069401E2061E068401EE06000F012
:1018700097F92846FFF7A4FFE0680028EAD1386806
:101880000128F9D9C9F80080BFF34F8FBFF36F8FDC
:10189000F2E70000280400201C00002004ED00E016
:1018A0002DE9F0479A46DDE9098481466FF003038C
:1018B000206B03EB82021044089D20F0070670079E
:1018C00007D0502080F31188BFF34F8FBFF36F8F85
:1018D000FEE723180A5C83F834200A5C12B1401C2E
:1018E0001028F6D3002784F84370072D00D306256F
:1018F000E562C4E91157201D00F00BF904F118004E
:1019000000F007F92461C5F107006462A061E76493
:1019100084F8507052464946304600F0BFF82060C7
:10192000B8F1000F01D0C8F80040BDE8F087000012
:1019300030B5114900E011460A688242FBD34B687A
:101940005C18844203D140681844486008464368E4
:101950001C18944209D1084C103C2468A24209D0BA
:1019600052681A4442600A6812680260814200D0DC
:10197000086030BD0460F9E768000020064841684F
:10198000096829B14168C968C96849680163704735
:101990004FF0FF31FAE700001C00002008484068C3
:1019A000401C4FF0500080F3118804D0BFF34F8FDC
:1019B000BFF36F8FFEE7BFF34F8FBFF36F8FFEE76D
:1019C000700000202DE9F0410546002700F098F94D
:1019D000314E306808B9FFF70DFFF06805424BD172
:1019E000C5B3083568070ED005F00700C0F1080040
:1019F0000544680707D0502080F31188BFF34F8F4C
:101A0000BFF36F8FFEE72DB37068854234D822484C
:101A1000103001460C6801E020460C466168A9427E
:101A200002D221680029F7D131688C4224D007689E
:101A30002168016060680837411B10290FD96019BF
:101A4000420708D0502080F31188BFF34F8FBFF3B7
:101A50006F8FFEE710E041606560FFF769FF616826
:101A60007068401A7060B268904200D2B060F0684E
:101A700001430020C4E9000100F0ACFA780707D068
:101A8000502080F31188BFF34F8FBFF36F8FFEE7B5
:101A90003846BDE8F08100005800002010B5031F53
:101AA0004FF080741C601B1F21F001011960191F89
:101AB000024B0B60143940380A6010BD9D190008B4
:101AC000D0E9013201699A60D0E901235A604A687D
:101AD000824201D182684A60002202610868401E89
:101AE0000860086870470000034B036003F154006E
:101AF00008608020106070470C01002000F1080190
:101B00004FF0FF32C0E90112C160016100210160A4
:101B1000704700210161704730B50B685A1C02D034
:101B200000F1080202E0026904E0224654682568D8
:101B30009D42FAD953684B6099608A605160086190
:101B40000168491C016030BD42684A6093688B603F
:101B500093685960916008610168491C0160704791
:101B6000502080F31188BFF34F8FBFF36F8F0A4966
:101B70004868401C486001280CD10848006810F0F3
:101B8000FF0F07D0502080F31188BFF34F8FBFF3B2
:101B90006F8FFEE7704700007000002004ED00E04A
:101BA0000849486828B1401E486001D180F3118877
:101BB0007047502080F31188BFF34F8FBFF36F8FB2
:101BC000FEE700007000002070B5002827D0144DFB
:101BD000A0F108046168E868014207D1502080F351
:101BE0001188BFF34F8FBFF36F8FFEE722683AB1C2
:101BF000502080F31188BFF34F8FBFF36F8FFEE744
:101C00008143616000F07CF860686968084468603E
:101C10002046FFF78DFEBDE8704000F0DBB970BDD7
:101C2000580000204FF0E02000210161816105494A
:101C30004FF47A720968B1FBF2F1491E4161072144
:101C4000016170471800002010B5020014D00F4841
:101C5000806B38B1502080F31188BFF34F8FBFF3F2
:101C60006F8FFEE700F04CF800211046FFF708FDEB
:101C700000F0B0F9002807D105494FF08050086006
:101C8000BFF34F8FBFF36F8F10BD00001C0000200B
:101C900004ED00E010B586B00024039405AA04A961
:101CA00003A80494FFF720FFDDE903010094CDE9C8
:101CB000011000230EA11048059A00F0EEF80F491C
:101CC0000028486311D0502080F31188BFF34F8F54
:101CD000BFF36F8F4FF0FF3008630120C8614C6184
:101CE00006B0BDE8104000F041B806B010BD0000DD
:101CF00049444C4500000000411800081C00002029
:101D00000248816B491C8163704700001C00002061
:101D10001448816B11B10121416270470021416279
:101D20008169B1FA81F1C1F11F0101EB81020E4914
:101D300051F822306BB101EB820101F108034A68CE
:101D400052684A609A4201D152684A60D168016083
:101D50007047502080F31188BFF34F8FBFF36F8F10
:101D6000FEE700001C000020600300201CB526498F
:101D700008780190FF20087008788DF800009DF821
:101D800000009DF8002000F0F000904207D05020A5
:101D900080F31188BFF34F8FBFF36F8FFEE79DF87D
:101DA00000001A4B00F0500018700720986005E002
:101DB0009DF8002052008DF80020401E9DF8002064
:101DC0001206F5D49860032807D0502080F31188BC
:101DD000BFF34F8FBFF36F8FFEE74FF440709860F3
:101DE000019808700A48016841F4700101600168B7
:101DF00041F070410160FFF715FF00205860FEF7C9
:101E0000D5F900201CBD000000E400E070000020B7
:101E100020ED00E010B5502080F31188BFF34F8F04
:101E2000BFF36F8F00F072F818B104494FF0805083
:101E30000860002080F3118810BD000004ED00E070
:101E40002DE9FF5F8346DDE90E87994616468A46EF
:101E50009000FFF7B7FD05001CD05420FFF7B2FD3E
:101E6000040014D00020256384F85100CDE902401D
:101E7000CDE900874B46324651465846FFF710FDE4
:101E80002046FFF735FC012004B0BDE8F09F28464E
:101E9000FFF79AFE4FF0FF30F6E7F0B585B0DDE9C9
:101EA0000B640A9DA6B1DCB1542700972663022675
:101EB00084F85160002604AFCDE90246CDE9005711
:101EC000FFF7EEFC2046FFF713FC049805B0F0BDC9
:101ED000502080F31188BFF34F8FBFF36F8FFEE761
:101EE000502080F31188BFF34F8FBFF36F8FFEE751
:101EF0000548C16919B1806B18B1002070470120F5
:101F000070470220704700001C0000202DE9F041BE
:101F10002E4C0027A06B40B1206A401C2062606AF2
:101F200000B101273846BDE8F0816669761C66611C
:101F300013D16068006838B1502080F31188BFF376
:101F40004F8FBFF36F8FFEE76068A1686160A0608C
:101F5000A06A401CA062FFF711FD206BDFF87080C3
:101F6000864209D36068006880B16068C068C5684F
:101F7000686886420DD220632068C06A00EB800149
:101F800058F821000128CAD90127C8E74FF0FF30CF
:101F9000F1E7281DFFF794FDA86A18B105F11800B4
:101FA000FFF78EFDE86A0121A26981401143A1611A
:101FB00000EB800108EB8100291DFFF7C5FDE86AF1
:101FC0002168C96A8842CDD30127CBE71C000020D5
:101FD000600300202DE9F0472C4D00242746A86B14
:101FE00038B1FFF7BDFDA86B401EA863A86B40B1D8
:101FF00046E0502080F31188BFF34F8FBFF36F8FFF
:10200000FEE72969224E0120D1B3A6F1B40980462A
:102010003068E8B1F068C46804F11800FFF750FDBB
:10202000201DFFF74DFDE06AAA6908FA00F111438F
:10203000A96100EB800109EB8100211DFFF784FD00
:10204000E06A2968C96A8842E2D3C5F82480DFE7DC
:102050000CB1FFF793FC2C6A44B14646FFF756FFDC
:1020600000B16E62641EF9D100202862686A38B13E
:102070000849012738070860BFF34F8FBFF36F8F00
:10208000FFF78EFD3846BDE8F08700001C000020F9
:102090001404002004ED00E04FF47F0C1CEAD01281
:1020A0001EBF1CEAD11392EA0C0F93EA0C0F00F04A
:1020B000858090EA010F48BF42F4807240F4000C22
:1020C00041F400002CF07F4120F07F4000B58142B8
:1020D000A2EB03020FF2081CACEB504EC0F1000063
:1020E0009EF800E04FEA4E0E00FB0EFC38BF4900A0
:1020F0004FEA2C1C02F5FA020CFB0EF34FEACE1E3F
:102100004FEA112C4FEAC1210EEB635E42EB2242F3
:102110000EFB0CFC4FEA1C5300FB03114FEA112C81
:102120004FEA01310EFB0CFC4FEADC4C00FB0C11BA
:10213000C14228BF09184CEB03335DF804EB10EBE8
:10214000410143EBC250B2F57C0F38BF704729D52F
:1021500012F0F00F1CBF00F1C04000F000407047CB
:10216000008182838485868788898B8C8D8E8F9170
:102170009293959697999A9C9D9FA0A2A3A5A7A894
:10218000AAACAEB0B2B3B5B7B9BCBEC0C2C5C7C9C0
:10219000CCCED1D4D7D9DCDFE2E6E9ECF0F3F7FA24
:1021A000FE0000004FEA400C0CF1807CBCF17E4F39
:1021B00028BF7047B0F1C04000F02BB990EA010F82
:1021C0000CEAD11348BF42F48072624538BF6345C0
:1021D00007D213F47F0F16D080EA010000F0004010
:1021E000704710B500F0CFF8097EFC3E00F005B84E
:1021F00080EA010000F00040704780EA010000F032
:10220000004000F006B912F47F0F04BF0248704787
:1022100080EA010000F0FDB80000C07FC10DD1F1DF
:102220009E0206DB4FEA002343F0004323FA02F04C
:102230007047004207D54FEA4001B1F1FE4F02D28C
:102240004FF00000704710B500F09DF849922480CF
:10225000002070476FEA200070470000B0FA80F35A
:1022600010FA03F2C3F19D030AD0D90501EB122045
:10227000530638BF704700F1010008BF20F001008D
:10228000704700004FF47F0C1CEAD0121EBF1CEAFE
:10229000D11392EA0C0F93EA0C0F00F0478090EAFA
:1022A000010F48BF42F480724FF0004C4CEA00200E
:1022B0004CEA012102EB0302A0FB0113A2F500028C
:1022C000002918BF43F001035B0028BF4FEA330326
:1022D00042EB22425FEA132C4CEBC2502EBFBCEB08
:1022E000436FB2F57C0F70474FEA036CBCF1004FAF
:1022F00008BF20F00100B2F57C0F38BF70470BD546
:1023000082F0FF0212F5803FC8BF704700F1C04065
:10231000D8BF00F00040704700F5000C5FEA4C0C9D
:1023200048BF7047B0F1C04000F073B890EA010FA9
:102330000CEAD11348BF42F48072624538BF63454E
:1023400004D280EA010000F00040704710B500F0B0
:102350001AF800BF8900013E00F007B800F009B884
:102360005FEA410C5FEA1C6C08D080EA010000F0D3
:1023700050B85FEA400C5FEA1C6CF6D14FF00040A9
:10238000A0F5800070470EF1020E2EF0030E5EF8ED
:10239000044B244204D44FEA4102B2F17F4F11D8DA
:1023A0004FEA4003B3F17F4F0CD80ED14FEAD07CF7
:1023B000B2F17F4F0CEB4C0C0CF1020C08BF4CEB54
:1023C000D17C04E04FF0080C01E04FEAD17C0CEB2B
:1023D0004C0324FA03F404F00704B4F1040C06D20D
:1023E0000EEB840CBDE810404CF0010C6047DFE8B8
:1023F0000CF0070802024FF00040A0F5800010BD6D
:102400000846420018BFD2F1807288BF00F0004039
:1024100010BDFF2141EAD050C0057047B02400082C
:10242000F112000800000000000000008000000021
:102430000000000000000000A02400088D03000838
:10244000020000000000000080000000000000000A
:102450000000000094240008B112000802000000EF
:1024600000000000800000000000000000000000EC
:10247000010202030405060708090A0B0C0D0E0FE2
:102480001010000000000000000001020304060715
:102490000809000052656D6F74655F5461736B00CD
:1024A000436861737369735F5461736B000000006C
:1024B00064656661756C745461736B00DC2400089C
:1024C00000000020C400000028010008A02500082A
:1024D000C400002024160000440100080000000091
:1024E00000000000000000000100000010000000DB
:1024F000000000000024F4000000000000000000C4
:1025000000000000000000000000000000000000CB
:1025100000000000000000000000000000000000BB
:1025200000000000000000000000000000000000AB
:10253000000000000000000000000000000000009B
:10254000000000000000000000000000000000008B
:10255000AAAAAAAA00000000014200000000000090
:102560000100000002000000030000000400000061
:102570000500000006000000070000000800000041
:10258000090000000A0000000B0000000C00000021
:102590000D0000000E0000000F0000001000000001
:04000005080000ED02
:00000001FF
