:020000040800F2
:10000000280D002075020008453300087D2A0008ED
:10001000352C00087F1D0008DD43000800000000AB
:10002000000000000000000000000000713C00081B
:10003000C51E0008000000006F3C0008BD4100081C
:100040008F0200088F0200088F0200088F0200084C
:100050008F0200088F0200088F0200088F0200083C
:100060008F0200088F020008C71E00088F020008D8
:100070008F0200088F0200088F0200088F0200081C
:100080008F0200088F0200088F0200088F0200080C
:100090008F0200088F0200088F020008CD1E0008A2
:1000A0008F0200088F0200088F0200088F020008EC
:1000B0008F0200088F0200088F0200088F020008DC
:1000C0008F0200088F0200088F0200088F020008CC
:1000D0008F0200088F0200088F0200088F020008BC
:1000E0008F0200088F0200088F02000800F002F85B
:1000F00000F0B0F80AA090E8000C82448344AAF112
:100100000107DA4501D100F0A5F8AFF2090EBAE80F
:100110000F0013F0010F18BFFB1A43F0010318473B
:100120005C7C00007C7C00000A444FF0000C10F85E
:10013000013B13F0070408BF10F8014B1D1108BF65
:1001400010F8015B641E05D010F8016B641E01F805
:10015000016BF9D113F0080F1EBF10F8014BAD1C55
:100160000C1B09D16D1E58BF01F801CBFAD505E073
:1001700014F8016B01F8016B6D1EF9D59142D6D3CD
:10018000704700000023002400250026103A28BFF5
:1001900078C1FBD8520728BF30C148BF0B607047F9
:1001A0006E2900F06982702900F0AB83662905F0A2
:1001B0000E87652905F00B87672905F008876129F7
:1001C00005F0078703681B0A28BF41F080016929F1
:1001D00000F01682642900F01382752900F0108265
:1001E0006F2900F03883782900F07783E92900F03F
:1001F000D382E42900F0D082F52900F0CD82EF29E6
:1002000000F03583F82900F076830368DB0928BF06
:1002100041F08001632901F0AF80732901F0B480BF
:10022000E32901F0BF80F32901F0C480002070476A
:100230001FB501F015F904000020002104F0B2FE02
:10024000401C60600020002104F096FEE0601FBDAD
:1002500010B510BD01F0D6F81146FFF7E9FF04F024
:1002600059FC01F0B3F903B4FFF7F2FF03BC01F04E
:10027000B7F900000948804709480047FEE7FEE754
:10028000FEE7FEE7FEE7FEE7FEE7FEE7FEE7FEE746
:1002900004480549054A064B704700001F42000804
:1002A000ED00000828070020280D00202809002064
:1002B0002809002053EA020C00F069802DE9F04B78
:1002C0004FF00006002B1FBFB3FA83F503FA05F4C5
:1002D00024FA05F65E4012BF1643B2FA82F502FA1E
:1002E00005F4C5F120051EBF22FA05FC44EA0C0402
:1002F000203556EA044C4FEA144418BF641C4FF0F2
:1003000000084FF00009904271EB030C39D300292B
:1003100019BFB1FA81F701FA07F6B0FA80F700FACF
:1003200007F6C7F120071EBF20FA07FC46EA0C06B5
:100330002037B6FBF4FCA7EB0507103F07F01F0BB7
:10034000CBF120060CFA0BFB2CFA06F644BFB346A1
:100350000026202FA4BF5E464FF0000B5BEA060C80
:1003600008BF4FF0010B19EB0B09ABFB027C48EB0C
:100370000608C01B06FB02CC0BFB03CC71EB0C0187
:10038000C1E70B46024641464846BDE8F08B13B52F
:100390004FF000004FF00001AFF30080BDE81C40BB
:1003A000704700001CB50C46064B7B446946009024
:1003B000204600F07AF904460020694600F088F9EA
:1003C00020461CBD23030000032A40F2308010F0B9
:1003D000030C00F0158011F8013BBCF1020F6244E0
:1003E00098BF11F801CB00F8013B38BF11F8013B71
:1003F000A2F1040298BF00F801CB38BF00F8013B1E
:1004000011F0030300F04C83083AC0F0088051F863
:10041000043B083A51F804CBA0E80810F5E7121D98
:100420005CBF51F8043B40F8043BAFF30080D207B7
:1004300024BF11F8013B11F801CB48BF11F8012B83
:1004400024BF00F8013B00F801CB48BF00F8012BA6
:1004500070474FF0000200B5134694469646203987
:1004600022BFA0E80C50A0E80C50B1F12001BFF46D
:10047000F7AF090728BFA0E80C5048BF0CC05DF8D3
:1004800004EB890028BF40F8042B08BF704748BF21
:1004900020F8022B11F0804F18BF00F8012B704795
:1004A0004FF0013C50F8042B51F8043B9A4221D103
:1004B000A2EB0C03934313EACC1317D150F8042B8F
:1004C00051F8043B9A4215D1A2EB0C03934313EA73
:1004D000CC130BD150F8042B51F8043B9A4209D1AC
:1004E000A2EB0C03934313EACC13DBD04FF00000D4
:1004F000704700BFD01A01BAB1FA81F101F01801BA
:1005000022FA01F0CB40C1F12001DBB2C0B2C01A27
:100510002CFA01F3D11A914311EAC311E6D17047C5
:1005200070477047704710B500F0ECFA006810BDD6
:1005300010B5044600F0E6FA046010BD70B504463C
:1005400085690068C10601D5302600E02026C00775
:1005500007D070BDD4E9012130469047206A401C85
:1005600020626D1EF6D570BD70B5044685690078B1
:10057000C00707D170BDD4E9012120209047206A2F
:10058000401C20626D1EF6D570BD09684A0501D574
:1005900040B27047C905FCD500B2704709684A05EA
:1005A00001D5C0B27047C905FCD580B2704770B59F
:1005B0000C460546012A05D02878800600D5EA6950
:1005C000002302E0012305E05B1C934202D2E05CC1
:1005D0000028F9D1A869E618C01AA861286A184449
:1005E00028622846FFF7AAFF04E0D5E9012114F8A4
:1005F000010B9047B442F8D32846FFF7B5FF70BD12
:100600002DE9F0410646002410687529314616A5EB
:1006100010D0FFF7BAFF002802DA404213A507E026
:1006200031688A0701D512A502E0490704D511A552
:10063000012401E0FFF7B2FF00210A2206F124079E
:1006400009E0B0FBF2FCB0FBF2F302FB1C0030301F
:1006500078541846491C0028F3D123462A463046D0
:10066000BDE8F04100F097BA000000002D00000046
:100670002B0000002000000011680268006A53058A
:1006800001D508700AE0D30501D5088006E01306FD
:1006900003D5C217C1E9000200E0086001207047DD
:1006A00001694A1C02610878704700B58FB0CDE936
:1006B00001310021059105497944CDE90310114626
:1006C000684600F029F90FB000BD0000E5FFFFFF0C
:1006D0000A6802F8010B0A60704700002DE9FF5F0D
:1006E00015468A460446DFF8AC80F8440027D8E96E
:1006F00000103E46CDE9001010E03AF816106A46A8
:1007000002A800F05BFE411C07D02178890603D5C2
:10071000E269391891420DD80744761C207880068A
:1007200002D5E069B84205DDAE42E6DB3AF81600D4
:100730000028E2D1A069C01BA0612046FFF7FEFEA1
:10074000D8E90010CDE90010002017E03AF81810A1
:100750006A4602A800F032FEB0F1FF3F81460BD09E
:1007600000250DF1080B05E0D4E901211BF8050077
:1007700090476D1C4D45F7D308F10100B04280460B
:10078000E4DB206A384420622046FFF7EDFEBDE836
:10079000FF9F0000C67300002DE9F0418046D21D86
:1007A00022F007020025D2E90002F52915A614D08F
:1007B000011E72F1000106DA0023D0EB030063EBA7
:1007C000020211A608E0D8F800108B0701D50FA689
:1007D00002E0490701D50EA601251146002408F1C3
:1007E000240704E000F092F930323A55641C50EAD4
:1007F0000102F7D12B46324621464046BDE8F04182
:1008000000F0C9B9000000002D0000002B0000001E
:100810002000000030B4002100F1240408E002F0C0
:100820000705D208303542EA4372DB086554491C9B
:1008300052EA0305F3D10468002310A2250707D567
:10084000A40600D421B1C46901230DA2641EC461B1
:1008500030BC00F0A0B910B5044621461068FFF77F
:100860009DFE02462046BDE810400023D2E7D21D7F
:1008700022F00701D1E90023CCE7000000000000CE
:1008800030000000F0B40D460188090502D5214C66
:100890007C4402E01F4C7C440E34002100F124060D
:1008A00008E002F00F071209E75D42EA03721B0934
:1008B0007754491C52EA0307F3D102780023120748
:1008C00004D5702D06D009B1022311342246F0BCA4
:1008D00000F061B901231034F8E770B504460D4605
:1008E00021461068FFF75AFE024629462046BDE819
:1008F00070400023C6E7D21D22F00703D3E900238E
:10090000C0E70368126843F0200303600823C36153
:100910000023B7E7287200002DE9F05F89460446FE
:100920004FF0000ADFF874B1FB44C0F820A0204665
:10093000E1688847002874D0252806D0D4E9012131
:100940009047206A401C2062F1E700265F4620465F
:10095000E16888472028054607DB312D05D2781944
:1009600010F8200C08B10643F1E7B00701D526F0D6
:100970000406C4F81CA00027C4F818A02A2D09D02A
:10098000284604F071F838B304EB8708303DC8F806
:10099000185019E059F8041B204604EB87029161B6
:1009A000E1688847012F054618D1E069002820DA60
:1009B00026F020061DE0D8F8180000EB800005EBBB
:1009C00040003038C8F818002046E16888470546DE
:1009D00004F04AF80028EED1012F0AD02E2D08D1BC
:1009E0002046E16888477F1C0546022F46F0200616
:1009F000C4DBA069002803DA404246F00106A0618A
:100A0000F00701D026F010066C2D0BD0682D09D010
:100A10004C2D39D06A2D35D0742D35D07A2D33D068
:100A200016E038E0E1682F4620468847B842054680
:100A300009D16C2F26D04FF48060E1680643204630
:100A40008847054604E06C2F1AD04FF480700643A7
:100A50000DB3A5F14100192802D8203546F40066EF
:100A60004A462946204626604E46FFF799FB80B14C
:100A700001280BD0F61D26F0070000F1080956E703
:100A80004020E4E78020D8E70020D6E706F10409FB
:100A90004DE7284652E7206ABDE8F09FB871000094
:100AA00010B5203AC0F00B80B1E81850203AA0E809
:100AB0001850B1E81850A0E81850BFF4F5AF5FEA3D
:100AC000027C24BFB1E81850A0E8185044BF18C9F0
:100AD00018C0BDE810405FEA827C24BF51F8043B97
:100AE00040F8043B08BF7047D20728BF31F8023BEB
:100AF00048BF11F8012B28BF20F8023B48BF00F87F
:100B0000012B704700487047C406002030B5B0F193
:100B10000A024FEA900E71F100034EEA817EB0EBBB
:100B20000E0061EB91014FEA101E4EEA017E10EBC0
:100B30000E0041EB11114FEA102E4EEA016E10EB40
:100B40000E0041EB11214FEA104E4EEA014E10EB20
:100B50000E0041EB1141401841F100014FEAD00075
:100B600040EA41704FEAD10110EB80054FEA810461
:100B700044EA907444EB01046D1944EB0404521BE5
:100B8000A3414FF0000348BF0A3200D530BD401CDE
:100B900041F1000130BD2DE9F0470D4699469246DE
:100BA000044600F124080168880604D5E06921F0B4
:100BB0001001216000E00120A84201DD471B00E098
:100BC0000027A1697A1902EB0900081AA0612078B0
:100BD000C00602D42046FFF7B1FC002608E0D4E9A5
:100BE00001211AF806009047206A401C761C2062FA
:100BF0004E45F4DB2078C0060AD52046FFF79EFC60
:100C000006E0D4E9012130209047206A401C206290
:100C1000381EA7F10107F4DC07E0D4E9012118F838
:100C200005009047206A401C2062281EA5F101059E
:100C3000F3DC2046FFF798FC2078000602D502205E
:100C4000BDE8F0870120FBE770472DE9FF4F0C4618
:100C50001E464FF0FF378BB0D2E90001DDF860800F
:100C60000A908A46C1F30A5505B93D460021084657
:100C70004FF00000BAF1000F00F4400005DA00EB7D
:100C800080004FF4400101EA50004FEA9059B9F159
:100C9000010F00DDB9460A9850EA4A000ED044F62A
:100CA0001050A5F2FF3545432F14B8F1000F1ED0A8
:100CB0007542291E1EDDC9F100021CE0B8F1010FCA
:100CC0004FF0000001D0302103E0F24305E0215451
:100CD000401CB042FBDB30460022002121540B991E
:100CE000C1F80880C1E900200FB0BDE8F08FBD1B3E
:100CF0006D1CDEE74A4600DA694206A800F0F4FB04
:100D000006AB93E8070003AB83E8070050460A9957
:100D100000F06DFC8DE80700A0F500501F38009032
:100D20000398002D0ADD42F21F014A4608440023C1
:100D300003A90390684600F0D6FE09E0A0F5005034
:100D40004A461F38002303A90390684600F0E0FEDE
:100D50008DE807000004000C03D04FF0FF3041087D
:100D600000E01046B8F1000F03D0002200921546B3
:100D70001EE0751E05D4FFF7C9FE303262556D1EA8
:100D8000F9D5B3460122084302D000227F1C04E0BB
:100D90002078302801D100227F1E002A099784D0B4
:100DA0001DE0112D07DAFFF7B1FE303262556D1CE0
:100DB00050EA0102F5D1084302D00098C8B10EE014
:100DC0000021681E05E0235C625C63542254401ECF
:100DD000491C8142F7DBAB46A81B401E099000204E
:100DE00004F80B000B98099AC0F80880C0E9002BA2
:100DF0007AE711264FF0000857E72DE9F04F8846B3
:100E00000446D21D22F0070191B0D1E90001CDE9DD
:100E10000A0103F0E4FA02460B98C00F01D02D201E
:100E200007E02068810701D52B2002E0202101EA9C
:100E3000C000032A099001D0072A05DB034641467A
:100E4000204600F011FB0BE12078800601D5E06917
:100E500000E00620B8F1650F814606D0B8F1660FB4
:100E600018D0B8F1670F70D131E00020B9F1110F3F
:100E7000009001DB112301E009F101030AAA01A995
:100E80000CA8FFF7E2FEDDE90C70002609F1010570
:100E9000834647E001204B4600904FF000470AAAE6
:100EA00001A90CA8FFF7D1FEDDE90DB00C995D4654
:100EB000002610B909F101000D18B9EB050003D4A3
:100EC000C0F1FF3609F10105A5EB09002BE0B9F1EE
:100ED000010F01DA4FF001090020B9F1110F009064
:100EE000484601DD112300E003460AAA01A90CA827
:100EF000FFF7ABFEDDE90C704D46002683462078F7
:100F000000070AD4AB4500DA5D4601A8012D04DDD7
:100F1000411911F8011C302907D04F4502DA17F1A9
:100F2000040F04DA012082460FE06D1EEEE7002F69
:100F300002DCED1B3E4403E0781CA84200DD7D1C72
:100F4000B81B00F1010A4FF000472078000703D4D6
:100F5000AA4501DB4FF0FF3A0021B7F1004F0DF138
:100F600043088DF8431024D002202B23002F01DAF0
:100F70007F422D230A21021EA0F1010000DC5FB197
:100F800097FBF1FC97FBF1F201FB1C7C17460CF17F
:100F9000300C08F801CDEEE7A8F1010003702188BC
:100FA000090501D5452100E06521A0F1010800F8FF
:100FB000011C09980FA9A1EB0807FF1D00B1012032
:100FC000411901EBEA70A1693844081A401EA0617A
:100FD0002078C00602D42046FFF7B0FA099828B15D
:100FE000D4E901219047206A401C20622078C00685
:100FF00022D52046FFF7A2FA1EE0002E04DBB345FF
:1010000002DD01A8805D00E03020D4E90121904795
:10101000206A401C2062761CAAF101005FEA000AE7
:101020000AD100F01DFAC0680168405CD4E90121D2
:101030009047206A401C2062281EA5F10105DCDCD7
:1010400007E0D4E9012118F8010B9047206A401C01
:101050002062381EA7F10107F3DC2046FFF784FA6F
:10106000032011B041E600002DE9F04F04460D4683
:10107000D21D22F0070089B0D0E9009748463946D2
:1010800003F0ADF90246F80F01D02D2307E02068E8
:10109000810701D52B2302E0202101EAC0038DF84E
:1010A00020300BB1012000E00020032A824601D04D
:1010B000072A04DB2946204600F0D6F93FE12078D4
:1010C000800601D40D2500E0E569C7F30A560D2D11
:1010D00049DA00214FEA175B08464FF00000002F65
:1010E00000F4400007DA00EB80004FF4400100EB11
:1010F000D07001EA60008115012901DD4FF0FF3158
:1011000000224FEA850CBCF1180F06D31346ACF150
:1011100018004FF08052C24003E04FF4801323FACE
:101120000CF30CF10C0CBCF1200F04D3ACF1200C2F
:1011300009FA0CF001E007FA0CF000294FF0004822
:1011400001DD18B90FE00ED140450CD319EB0209AF
:101150005F4121B9404502D19F4329EA0209BBEB17
:10116000175F00D0761C2088000502D57B487844A4
:1011700002E07A487844193808AA302302F80A3085
:10118000037C0AF10101002E0AF1020A53546A4657
:1011900002DC4FF0300101E04FF031014FF0010867
:1011A0008DF8001002D0A6F2FF3603E059EA47019D
:1011B00000D06B4E002D02DC2178090704D54FF0DA
:1011C00002082E218DF80110C44600210BE0C7F360
:1011D00003433F01C35C491C6D1E02F8083005291A
:1011E00008F1010801DA002DF1DC00210CE000EB30
:1011F0001973491C1B786D1E082902F808304FEA44
:10120000091908F1010801DA002DF0DC21688B06CC
:1012100002D516E0A8F10108E04505DD02EB080360
:1012200013F8013C302BF5D0B8F1000F09DD02EBCB
:10123000080313F8013C2E2B03D1090701D4A8F1B0
:101240000108002D05DD3E2102F808106D1E08F191
:101250000108407C002E02F8080008F1010804DAB9
:101260002D20764202F8080002E02B2002F8080048
:101270000A214FF47A70864208F101080BDB96FBD5
:10128000F0F3303302F8083096FBF0F308F1010870
:1012900000FB136601E0642E0CDB642096FBF0F388
:1012A000303302F8083096FBF0F308F1010800FB38
:1012B000136601E00A2E06DB96FBF1F0303002F8EF
:1012C000080008F1010896FBF1F001FB10603030D6
:1012D00002F80800A16908F1010808EB050202EB19
:1012E0000A00081AA0612078C00602D42046FFF741
:1012F00025F9216A08AE01EB0A00206204E0D4E976
:10130000012116F8010B9047BAF1010AF7D22078B3
:10131000C00602D52046FFF711F96E4609E016F81F
:10132000010B3E280FD0D4E901219047206A401CD0
:101330002062B8F10108F2D22046FFF715F909B092
:101340000320BDE8F08F206A2844206203E0D4E93E
:101350000121302090476D1EEBD3F8E7B96A0000F9
:1013600002FCFFFF10B5436913B1AFF3008001E049
:10137000FFF71DF9012010BD127800F124010A7059
:1013800000224A700122EDE711684FF0FF32E9E7D1
:1013900010B5436913B1AFF3008001E0FFF79EF988
:1013A000012010BD128800F1240182840022C28431
:1013B0000122EDE711684FF0FF32E9E770B51646FC
:1013C0000C46054600F044F8036893F80101012833
:1013D00006D0FF2C0FD8185D68B101202C7070BDAD
:1013E000D3F807013246214603F207130344284687
:1013F000BDE8704018474FF0FF3070BD004870479F
:10140000C40600207546FFF7F9FFAE4605006946A1
:10141000534620F00700854618B020B5FEF738FF88
:10142000BDE820404FF000064FF000074FF00008E5
:101430004FF0000B21F00701AC46ACE8C009ACE866
:10144000C009ACE8C009ACE8C0098D46704700008F
:1014500010B500F005F8001D10BD00BF493B0000AD
:1014600000487047E40600202DE9F0411F4604467D
:1014700003260168072A01F4006004DB08B116A501
:1014800005E016A503E008B115A500E015A521F0BB
:1014900010002060A069C01EA0610FB1401EA061B5
:1014A0002046FFF74BF84FB1D4E901213846904769
:1014B000206A401C2062C01C206206E0206AFAE715
:1014C000D4E9012115F8010B9047761EF8D2204689
:1014D000FFF74AF8BDE8F0814E414E006E616E00A4
:1014E000494E4600696E66002DE9F0478146164672
:1014F0008AB0354878440DC88DE80D0032487844EC
:10150000801C03AC0DC884E80D0041F69B300844F4
:10151000372190FBF1F290FBF1F5A5F1800501FB7D
:1015200012041B3C02D56442012000E00020DFF8D9
:1015300098A080460027FA44AAF1BE0A0EE0E00710
:101540000AD03246684607EB470101230AEB8101C6
:1015500000F0DEFA8DE8070064107F1C002CEED14D
:10156000194F7F44AE3F19E0E80715D007EB041090
:101570000DF1180A90E80E008AE80E00C068F042EB
:1015800001D1981908903246012306A903A800F05A
:10159000BFFA03AB83E807006D10641C002DE3D194
:1015A0004FF0010332466946B8F1000F03A802D09C
:1015B00000F099FA01E000F0ABFAC9E90001C9F8BE
:1015C00008200AB0BDE8F087C467000010B50446E3
:1015D000AFF300802046BDE81040FEF744BE000097
:1015E00001491820ABBEFEE72600020070475FEA03
:1015F000400C08BF91F0000F4FEA8C234FEAC12244
:1016000043EA51514FEA1C5018BF00F5F0404FEA31
:10161000300018BF41F000415FEA6C5C00F02980A7
:10162000BCF1FF3F08BF40F080407047130C06BF7D
:1016300012044FF0100C4FF0000C130E04BF1202F6
:101640000CF1080C130F04BF12010CF1040C930FE2
:1016500004BF92000CF1020CD30F04BF52000CF136
:10166000010C11464FF00002A0F11F00A0EB0C008E
:10167000704711F0004F08BF704731F000413FF450
:10168000D5AF0B0C06BF09044FF0100C4FF0000C47
:101690000B0E04BF09020CF1080C0B0F04BF09016B
:1016A0000CF1040C8B0F04BF89000CF1020CCB0F62
:1016B00004BF49000CF1010CCCF12003A0EB0C009D
:1016C00022FA03F302FA0CF241EA030100F10100ED
:1016D000704720F07F4C80EA030023F07F47ACEB9B
:1016E000070303F57C5300F0004003F1FF032DE9ED
:1016F00080494FEA154B09B44FEA144325EA0B4ED3
:1017000024EA03480FF2042606EB132749083E7823
:101710005FEA320203FB0667C7F5000707FB06F620
:101720004FEA54374FEAD64606F1020607FB066C2D
:10173000CCF1005C4FEA1C472CEA074C07FB06F48F
:101740000CFB06F504EB15464FEA961634BF002055
:101750004FF000404FEAD13706FB07FC4FEA1C4C24
:101760000CFB0BF7D21B03FB0CF761EB07010CFB27
:101770000EF7B0EB074072EB17420CFB08F734BFD3
:10178000A2EB0742B2EB074261EB17414FEA0C4470
:101790004FEA910706FB07FC4FEA1C4C0CFB0BF7CA
:1017A000B0EBC74072EB573203FB0CF734BFA2EB30
:1017B000C742B2EBC74261EB57310CFB0EF7B0EBFF
:1017C000C70072EB57720CFB08F734BFA2EBC702DD
:1017D000B2EBC70261EB5771039F4FEA816141EAA7
:1017E000921104EBCC044FEAD1374FEA826206FB38
:1017F00007FC42EA90124FEA80604FEA1C4C0CFB57
:101800000BF7D21B03FB0CF761EB07010CFB0EF788
:10181000B0EB074072EB17420CFB08F734BFA2EBAA
:101820000742B2EB074261EB17414FEA8C554FEA92
:10183000910704EB9C2406FB07FC4FEA1C4C0CFBB5
:101840000BF7B0EBC74072EB573203FB0CF734BF1A
:10185000A2EBC742B2EBC74261EB57310CFB0EF76C
:10186000B0EBC70072EB57720CFB08F734BFA2EB6A
:10187000C702B2EBC70261EB577115EB4C254FEA7B
:10188000816141EA92114FEA82624FEAD13742EA1E
:10189000901206FB07FC44F100044FEA80604FEA17
:1018A0001C4C0CFB0BF7D21B03FB0CF761EB070185
:1018B0000CFB0EF7B0EB074072EB17420CFB08F77E
:1018C00034BFA2EB0742B2EB074261EB174115EBC5
:1018D0001C154FEA813141EA92414FEA823242EAD5
:1018E00090424FEA80304FEA0C7644F1000448EA17
:1018F00003434EEA0B484FF0000EB2EB080C71EBBD
:10190000030724BF624639464EEB0E0E4FF0000B24
:101910000018524149414BEB0B0BB2EB080C71EB39
:1019200003077BF1000B24BF624639464EEB0E0ED7
:101930004FF0000B0018524149414BEB0B0BB2EB3F
:10194000080C71EB03077BF1000B24BF624639469C
:101950004EEB0E0E51EA020718BF46F0010616EBD9
:101960000E7655F1000254F1000103D5BDE889015E
:10197000BDE80088BDE88901BDE80048B6195241BC
:1019800041EB0101A3F10103704780807F7E7D7CE4
:101990007B7A7978777676757473727171706F6E01
:1019A0006E6D6C6C6B6A6A696868676666656464AC
:1019B000636362616160605F5F5E5E5D5D5C5C5B36
:1019C0005B5A5A59595858575756565555555454A5
:1019D000535352525251515050504F4F4F4E4E4D03
:1019E0004D4D4C4C4C4B4B4B4A4A4A49494948484F
:1019F000484747474746464645454544444444438F
:101A000043434342424242414141002B9C4630D431
:101A100077002BD01CB54FEA370703B44FF0100006
:101A20004FF01001BAF1000F06D0BCF1000FDCBF7F
:101A300040F0080040F008014FF000000FBCBDE886
:101A400010400BF1010BBBF1010F08BF5FEA170754
:101A500022BF12F1010211F101014FF0004143F1E7
:101A6000000300F0004043EA00007047F9D3570834
:101A7000D0E746EA064613F1400F4FEA16461FDD4F
:101A800013F1200FDFBF16430A46002120335B42CB
:101A9000BED0C3F1200746EA064602FA07F74FEA2E
:101AA000164646EA0706C3F1200722FA03F201FAB6
:101AB00007F721FA03F14FF0000342EA0702A7E714
:101AC00046EA020646EA06464FEA164646EA010696
:101AD000BCBF46EA0646360C4FF000034FF000024A
:101AE0004FF0000194E72DE9804C9A46934670B47C
:101AF00091E8380007C831EA400C48BF34EA430C8B
:101B000003D5FFF7E6FDFFF780FFF0BCBDE8008CD2
:101B10002DE9804C9A46934670B491E8380007C886
:101B200010F0804F08BF13F0804F03D100F005F88C
:101B3000FFF76BFFF0BCBDE8008C20F07F4780EA28
:101B4000030023F07F4C07EB0C03A3F57C5300F05C
:101B50000040A3F1FE0392F0000F00F0B38095F077
:101B6000000F00F077802DE901494FEA11404FEA5C
:101B7000144621EA004800FB06FC24EA064708FB5D
:101B800006F607FB08F800FB07F718EB06484CEBD6
:101B9000164C4FEA124B18EB07484FEA15464CEB30
:101BA000174022EA0B4E0BFB06FC25EA06470EFB0C
:101BB00006F607FB0EFE0BFB07F71EEB064E4CEB83
:101BC000164C4FF000061EEB074E4CEB174B18EB74
:101BD0000B0840F1000018EB0E0B58EB000840F129
:101BE00000008F1A4FF000013CBFC943661B14BFB1
:101BF000B5EB040C00213CBFC943F61B4FEA174468
:101C00004EEA8E0E27EA04454FEA1C4704FB0762A2
:101C10002CEA074C05FB07F70CFB05F604FB0CFC54
:101C200016EB074642EB174216EB0C4642EB1C4202
:101C30001BEB060658EB0202414146EA9E0601D51F
:101C4000BDE80189B619524141EB0101A3F101033D
:101C5000BDE801894FEA14454FEA114724EA0546D9
:101C600021EA074C05FB07F406FB07F70CFB06F11E
:101C700005FB0CFC11EB074144EB17444FEA1247FC
:101C800011EB0C4144EB1C4422EA074C05FB07F224
:101C900006FB07F70CFB06F605FB0CFC16EB0746EC
:101CA00042EB174216EB0C4642EB1C456A1854F106
:101CB000000148BF7047B619524141EB0101A3F141
:101CC0000103704795F0000F37D04FEA11424FEAF9
:101CD000144721EA024624EA074C02FB07F106FBFF
:101CE00007F70CFB06F402FB0CFC14EB074441EB7A
:101CF00017414FEA154714EB0C4441EB1C4125EA10
:101D0000074C02FB07F506FB07F70CFB06F602FB88
:101D10000CFC16EB074645EB174516EB0C4645EB5E
:101D20001C42121951F1000148BF7047B6195241C7
:101D300041EB0101A3F1010370474FEA14454FEA5B
:101D4000114724EA054621EA074C05FB07F106FB8B
:101D500007F70CFB06F24FF0000605FB0CFC12EB3C
:101D6000074241EB174112EB0C4251EB1C4148BFBB
:101D70007047921841EB0101A3F101037047FEE7A0
:101D80000A4808B5017800290ED1012101700849DF
:101D90004A68009243699A4202D20269521C026167
:101DA000496841610021017008BD00006000002009
:101DB000001000E070B500F03FF80B4DE88803F02C
:101DC00073FF0A4903F0B8FF29680446A88801EBAD
:101DD0004102C2EBC11100EBC10003F065FF2146D7
:101DE000BDE8704003F0D6BD900000206F12833A2A
:101DF0000D490A6842F080720A600C4900224A606C
:101E00000B6843F001030B6009494FF47A734843B0
:101E1000B0FBF3F30749C1E90103054BB0FBF3F055
:101E2000C1E90302FFF7ACBFFCED00E0001000E0E9
:101E300040420F00600000202DE9F8431F48406831
:101E40000090FFF79DFF1E4F0024009839694FF066
:101E5000FF322546E1FB0205C7E90E05D7F80480ED
:101E60000646424623462946FEF724FA4346A0FB8F
:101E700003C801FB038107F1300800FB0411B6EB36
:101E80000C06C8F80000D7F8089065EB01054A4633
:101E9000002330462946FEF70DFA81B2A8F8041057
:101EA00001FB09F1701A65EB04010023FA68FEF7E3
:101EB00001FAA8F80600BDE8F8830000001000E071
:101EC000600000207047102000F05CB810B52020A2
:101ED00000F058F8402000F055F8BDE81040802090
:101EE00000F050B870B5044600F042F90546601C99
:101EF00002D004480078044400F03AF9401BA042A4
:101F0000FAD370BD1000002070B51A4A01241A4D92
:101F1000102810D01949202818D0402820D0802817
:101F200008D1491EFDD28021104600F017F9012882
:101F300000D16C7070BD1248401EFDD210211046B9
:101F400000F00CF90128F5D1AC7070BD491EFDD22E
:101F50002021104600F002F90128F6D1EC7070BD86
:101F6000491EFDD24021104600F0F8F80128F6D1B4
:101F70002C7070BD000C0140200000209E25260022
:101F80003EAC2700044910B50A68024202D008603E
:101F9000FFF7BAFF10BD0000140401402DE9F84F0F
:101FA000DFF89C910024A9F1040B23460F2709F1C7
:101FB000040AABF1040EBBE00125A5402A40AA4269
:101FC00076D1DFF880C14E68A6EB0C0866452BD0B1
:101FD0000DDC032E34D005DC36B3012E19D0022ED1
:101FE0002FD11BE0112E16D0122E2AD119E0B8F5F0
:101FF000881F19D006DCB8F5803F15D0B8F5801FD2
:102000001FD111E0B8F5001F0ED0B8F5041F18D18C
:102010000AE0CB6815E0CB681B1D12E0CB680833E3
:102020000FE0CB680C330CE08B682BB1012B4FF029
:10203000080303D0456104E0042302E0056100E0E9
:102040000023FF2A01D8064601E000F104064FEA0A
:10205000840501D9A5F12005D6F8008007FA05FC12
:1020600028EA0C0803FA05F548EA0508C6F80080D6
:102070004D68ED005BD5344DAE6946F00106AE61AA
:10208000AD6924F0030605F0010500952F4D06EB20
:10209000050CDCF80850A607360F07FA06F825EA03
:1020A0000805DFF8AC80404503D14FF0000810E090
:1020B0003DE0DFF8A080404502D14FF0010808E084
:1020C000DFF89480404502D14FF0020801E04FF064
:1020D000030808FA06F848EA0508CCF808804D68B5
:1020E000D9F80060ED024D4601D5164300E0964355
:1020F0002E604D68DAF80060AD02554601D51643F2
:1021000000E096432E604D68DBF80060AD035D464D
:1021100001D5164300E096432E604D68DEF800605E
:10212000ED03754601D5164300E096432E60641C0E
:102130000A6832FA04F57FF43FAFBDE8F88F00007B
:10214000080401400000111000100240000001408E
:1021500000080140000C0140001001408068084068
:1021600000D0012070470AB1016170470904FBE704
:102170000148806870470000100000200248816814
:10218000027811448160704710000020074810B5A4
:10219000016841F010010160032000F06DF80F208C
:1021A00000F006F800F024F8002010BD00200240E6
:1021B00070B50D4D04464FF47A712878B1FBF0F0FC
:1021C0000A490968B1FBF0F000F0C4FA48B9102CD4
:1021D00007D200222146501E00F02EF800206C602D
:1021E00070BD012070BD0000100000201C00002008
:1021F000094808B5816941F001018161816901F0F7
:1022000001010091C16941F08051C161C06900F0D4
:102210008050009008BD000000100240002809DB3B
:1022200000F01F02012191404009800000F1E020F0
:10223000C0F8001170470000F0B40E4B1B680C464C
:10224000C3F30223C3F10705042D00D90425191D8A
:10225000072901D2002300E0DB1E012606FA05F162
:10226000491E214099409E40761E16403143F0BCE5
:1022700002F0C9B80CED00E0064900F0070208685A
:102280004FF6FF03184040EA0220034A104308605B
:10229000704700000CED00E00000FA052DE9F04762
:1022A0000F46050061D0434E306800F00700B84289
:1022B00009D2306820F0070038433060306800F001
:1022C0000700B84251D128683B4C810712D540071E
:1022D00003D5606840F4E06060602878000703D5AB
:1022E000606840F4605060606068A96820F0F000A9
:1022F000084360602878C00728D06868012810D09B
:102300002168022810D0890700292EDA616821F09F
:10231000030101436160FFF72BFF804641F28839DA
:102320000DE021688903EFE78901EDE7FFF720FF62
:10233000A0EB0801494502D90320BDE8F087606899
:10234000696800F00C00B0EB810FEFD1306800F04D
:102350000700B8420BD9306820F0070038433060DE
:10236000306800F00700B84201D00120E5E7287886
:10237000400705D56068E96820F4E06008436060C4
:102380002878000706D56068296920F4605040EA83
:10239000C100606000F028F86168084AC1F30311C9
:1023A000515CC8400649086006480068FFF700FF16
:1023B0000020C2E700200240001002402461000813
:1023C0001C000020140000200448054900684968EA
:1023D000044AC1F3C221515CC84070471C00002070
:1023E00000100240346100080E4A51680E4801F0A6
:1023F0000C03042B11D0082B0FD10C48C1F38343DD
:10240000C903C05C0AD55168084AC1F34041921E15
:10241000515C054A5043B0FBF1F070470449484312
:10242000704700000010024000127A00146100089A
:1024300000093D002DE9F84F040070D02078C04D10
:10244000C00749D06868C0F38100012807D06868D8
:10245000C0F38100022809D16868C00306D5286846
:10246000800339D560680028E7D035E06068B0F5B2
:10247000803F0BD010B1B0F5A02F11D0286820F408
:1024800080302860286820F4802002E0286840F42A
:1024900080302860606890B1FFF76AFE06460AE067
:1024A000286840F480202860F0E700BFFFF760FE56
:1024B000801B642873D828688003F7D50CE0FFF7E9
:1024C00057FE064605E000BFFFF752FE801B64285A
:1024D000F0D828688003F7D420789A4E80074FF010
:1024E00001094FF0000839D5686810F00C0F07D0CB
:1024F0006868C0F38100022809D16868C00306D467
:102500002868800714D52069012808D110E02069C7
:10251000B0B1C6F80090FFF72BFE074605E00AE1D0
:10252000FFF726FEC01B0228C4D828688007F7D50D
:102530002868616920F0F80040EAC10028600DE0D9
:10254000C6F80080FFF714FE074604E0FFF710FE10
:10255000C01B022823D828688007F7D420780007FA
:102560002CD57948A169D9B1C0F80090FFF700FED9
:10257000074604E0FFF7FCFDC01B02280FD8686A7D
:102580008007F7D571484FF4FA510068B0FBF1F0BD
:10259000009000BF0098411E0091FAD20EE080E04A
:1025A000C0F80080FFF7E4FD074604E0FFF7E0FD18
:1025B000C01B022875D8686A8007F7D420784007C6
:1025C00060D5E8690027C00008D4E86940F0805071
:1025D000E861E869012700F0805000905C480168DC
:1025E000C90513D40168834641F480710160FFF787
:1025F000BFFD824606E000BFFFF7BAFDA0EB0A0070
:1026000064284ED8DBF80000C005F5D5E068012845
:102610000AD008B1052813D0286A20F001002862EA
:10262000286A20F0040002E0286A40F001002862D5
:10263000E06841F2883B98B1FFF79AFD82460BE0D3
:10264000286A40F004002862EEE700BFFFF790FD23
:10265000A0EB0A0159455AD8286A8007F6D50CE044
:10266000FFF786FD824605E0FFF782FDA0EB0A0139
:1026700059454CD8286A8007F6D41FB1E86920F084
:102680008050E861E06988B36968C1F3810102297B
:1026900044D00228C6F8608004D0FFF769FD0446E4
:1026A00038E034E0FFF764FD074604E0FFF760FD23
:1026B000C01B02282BD828688001F7D4206AB0F507
:1026C000803F05D16868A16820F400300843686045
:1026D000D4E908010843696821F47411084368606B
:1026E000C6F86090FFF744FD044606E025E000BF11
:1026F000FFF73EFD001B022809D828688001F7D5A6
:102700001BE000BFFFF734FD001B022802D90320A5
:10271000BDE8F88F28688001F4D40EE00128F7D0D6
:102720006868226A00F48031914204D1616A00F441
:102730007010884201D00120EAE70020E8E700009D
:102740000010024000004242800442421C0000206F
:102750000070004010B5401EB0F1807F01D3012011
:1027600010BD4FF0E02460610F21601701F04BFEB7
:102770000020A06107202061002010BD70B590F8F6
:102780003C20012A23D0012480F83C40022280F81A
:102790003D2003685A689D6822F070060A6832433B
:1027A0005A600C4B02689A4205D0B2F1804F02D0B9
:1027B000094B9A4204D1496825F08003194391607E
:1027C00080F83D40002180F83C10084670BD022092
:1027D00070BD0000002C01400004004000B585B031
:1027E0000021009101910291039100680B498842F8
:1027F00011D10B48816941F004018161806969460A
:1028000000F004000490402000900220019003900A
:102810000448FFF7C3FB05B000BD00000004004002
:10282000001002400008014070B5044690F83C00DA
:1028300000260D4601280FD0012084F83C006AB123
:10284000042A1DD0082A2FD00C2A3FD001260020B0
:1028500084F83C00304670BD022070BD206801F055
:102860001BFD2068816941F0080181612068816950
:1028700021F004018161206881692A69114311E016
:10288000206801F031FD2068816941F400618161B7
:102890002068816921F480618161206881692A69E9
:1028A00041EA02218161D2E7206801F049FD2068F8
:1028B000C16941F00801C1612068C16921F00401CA
:1028C000C1612068C1692A69114311E0206801F0E3
:1028D00063FD2068C16941F40061C1612068C1697C
:1028E00021F48061C1612068C1692A6941EA02213D
:1028F000C161ACE710B5040003D094F83D0010B1FD
:1029000007E0012010BD002084F83C00204600F0C4
:102910001FF8022084F83D00211D206801F080FC92
:10292000012084F8460084F83E0084F83F0084F8D3
:10293000400084F8410084F8420084F8430084F8A1
:10294000440084F8450084F83D00002010BD0000DC
:1029500008B500680649884208D10648C16941F0B7
:102960000201C161C06900F00200009008BD0000D2
:10297000000400400010024010B50446022249B194
:1029800004290ED0082913D094F84100012816D04C
:10299000012010BD94F83E000128F9D184F83E20B2
:1029A0000FE094F83F000128F2D184F83F2008E0BE
:1029B00094F840000128EBD184F8402001E084F82D
:1029C00041200122206801F059FC0E49206888420C
:1029D00003D1426C42F4004242642068884205D030
:1029E000B0F1804F02D00849884204D1816801F0DB
:1029F0000701062903D0016841F0010101600020B0
:102A000010BD0000002C01400004004030B5044619
:102A10000D460068002201F031FC174B41F2111104
:102A200020688A10984209D1036A0B4206D1036AD2
:102A3000134203D1436C23F4004343642068036AC8
:102A40000B4206D1016A114203D1016821F0010154
:102A5000016001203DB1042D08D0082D09D084F873
:102A60004100002030BD84F83E00FAE784F83F00C2
:102A7000F7E784F84000F4E7002C0140FEE700008F
:102A80000448417819B100214170012070470020AD
:102A900070470000200000200448C17819B10021CF
:102AA000C170012070470020704700002000002006
:102AB0000448017819B100210170012070470020FD
:102AC00070470000200000200448817819B10021DF
:102AD0008170012070470020704700002000002016
:102AE0002DE9F04186B0002432480094019402940C
:102AF0000394816941F020018161816901F0200125
:102B00000491816941F004018161816901F004014E
:102B10000491816941F0080181618069264F00F0CC
:102B200008000490002280213846FFF71CFBDFF8E4
:102B30008C80002240F201314046FFF714FB8020D8
:102B400001250226CDE90005CDE902466946384651
:102B5000FFF724FA03960095CDE9015469464046F3
:102B6000FFF71CFAF02000901548CDE901056946F1
:102B70004046FFF713FA4FF44070009001AA11206D
:102B800082E8510069464046FFF708FA00221146E4
:102B90000A20FFF751FB0A20FFF740FB00221146F5
:102BA0001720FFF749FB1720FFF738FB06B0BDE8F9
:102BB000F08100000010024000080140000C0140BC
:102BC0000000211010B58AB0002407941C2168462B
:102BD0000894FDF73EFC1648144901604821C0E9FD
:102BE00001144FF6FF71C0E903148461FFF782FE00
:102BF00008B172B6FEE7079407A90D480894FFF7DD
:102C0000BDFD08B172B6FEE76020CDE90004029474
:102C10000022694606480494FFF706FE08B172B622
:102C2000FEE70348FFF7DAFD0AB010BD00040040DC
:102C30007C020020FEE7FFF723BF2DE9F041164696
:102C40000C46074603F044F94FF07E55A84206DDD6
:102C5000314603F071F8294602F09CFE08E010F1BD
:102C6000814F0AD9314603F067F8294603F03AF953
:102C70003946BDE8F04102F08DBE2046BDE8F08146
:102C8000FFF716BF02460021084609E07E2B03D954
:102C9000801CC0B2C91C02E0401CC0B2491CC9B2B1
:102CA000535C002BF2D17047F8B52B4C2B4E4FF0F4
:102CB0007E556FF0040700BF00F046FB20231A4644
:102CC00008215820009600F00DFE204602F098FFE3
:102CD00003B210221821682000F00CFD00F00BF95F
:102CE000C00002F0C9FF214602F054FE0446A8428B
:102CF00006DD394603F0CFF9294602F04BFE08E025
:102D000014F1814F0AD9394603F0C5F9294603F079
:102D1000E9F8214603F0DCF8044600E0002408232B
:102D20000FA20021022000F07FFE08230FA2202125
:102D3000022000F079FE082310A23021022000F0CA
:102D400073FE00F047FFFFF79BFF002803D1FFF75A
:102D500072FF0028B0D0F8BD0080634533760008CC
:102D600042793AE58F91E593A5000000E883B6E744
:102D70008987E6BB9AE586B2E69CBA00E6849FE8BE
:102D8000B0A2E5BC80E6BA90EFBC9A4164616D00E8
:102D90002DE9F0474A4D04460027686A87706A6A41
:102DA00001201026D07027706070A070E77020712D
:102DB0006771A77127726772A772287CE071287FFC
:102DC0002075687F6075A87FA075E87FE07527771C
:102DD00067772161E772277310E000BFFFF752FFAA
:102DE000E27A216902EB820206EB82028854227B9E
:102DF000E17A904200D92073491CE172E17A20699E
:102E000001EB810150F8210001782E29E6D1E07A0A
:102E1000401EC6B2E672A968286802F0BBFD02F047
:102E2000EFFE2076686802F0EBFE6076A776E86831
:102E300002F002FFE07694F91700227B94F9143037
:102E400000EB400102FB0311CFB284F82070042E86
:102E500000D90426A17D4E4306EB4000C6B284F89B
:102E60002160384602F020FF8046A968286802F0F9
:102E700091FD8146414602F08DFDB0F1864F04DDA3
:102E8000C7F1800002F0F8FE00E0484602F0B8FE0C
:102E9000A077304602F008FF69680F4602F07AFD1D
:102EA000B0F1854F04DDC6F1400002F0E5FE00E020
:102EB000384602F0A5FEE0776C62BDE8F0870000BE
:102EC000A40000202DE9F0418AB00F46DDE9104151
:102ED000164680461D4612AA02A8FDF763FA02A80C
:102EE000CDE900042B4632463946404600F0F0FD5D
:102EF0000AB0BDE8F08110B5FFF7E6FD10B14FF064
:102F0000FF3010BDFFF7C8FD0028FAD0012010BD2A
:102F100010B50B4C207870B1A4F178012046FFF772
:102F200037FF0020A07720764021617605490860B0
:102F30004FF085404860BDE81040014800F024B8DB
:102F400044010020A4000020064810B5007820B1FC
:102F5000044904485039FFF71BFFBDE81040014801
:102F600000F012B858020020064810B5007820B1D1
:102F7000044904487839FFF70BFFBDE810400148C9
:102F800000F002B8E00100202DE9FF5F04468078E0
:102F900000264FF001084FF00409C0B1FFF7ABFF66
:102FA0000646FFF785FD48B194F90400216900EB5E
:102FB000800209EB8200085818B18047FFF760FDD6
:102FC00028B184F80080002004B0BDE8F09F60784C
:102FD0000027914D4FF0100A00287DD094F91E0073
:102FE00002F04AFE834694F9180002F045FE594665
:102FF0006A69FFF722FE02F003FE207694F91F00B3
:1030000002F03AFE834694F9190002F035FE594663
:103010006A69FFF712FE02F0F3FD607694F8200073
:1030200002F042FE8346A07E02F03EFE59466A69E7
:10303000FFF703FE02F000FEA07694F8210002F0F4
:1030400033FE8346E07E02F02FFE59466A69FFF7A1
:10305000F4FD02F0F1FDC3B2E376A27E617E207E34
:1030600000F086F994F91710E07E494200EB410028
:1030700094F9161090FBF1F040B2A071F6B16279AC
:10308000324453B263712279324456B22671E27AE5
:10309000964200DD227194F90460002E00DA277157
:1030A000834201DB401E607194F90500904200DD0F
:1030B000627194F90500002800DA6771207962795D
:1030C000801A40B2207294F90920904203D0821AEB
:1030D0004A43A272607200E059E094F90A0038B1E4
:1030E00002F0CAFDA96902F0C9FC02F089FDA072D4
:1030F000002641E094F90800E17A304488423FDC40
:10310000216900EB800B082202EB8B00009108582C
:10311000006802F013FC94F9163094F91520CDE9FB
:10312000020100999A1A02EBD27251F82B00217D0C
:10313000CDE9001094F90AC0617EE07D06FB03C36F
:103140000144194401EB6201A27E434202EB4302B7
:10315000237EC9B21844D2B2C0B2A37DFFF7B2FE3B
:10316000014694F908002269304400EB80030AEB21
:103170008300761C115476B294F90600B042B9DC93
:103180000097E37EA27E617E207E00F037F9E07832
:1031900080B194F90400216900EB800209EB820000
:1031A00008588047686A007898B384F80280E7700E
:1031B0006C622EE094F91660304602F05DFD8146A7
:1031C00094F90400216900EB80020AEB820094F973
:1031D0001770085C94F9141000FB017002F04CFDAC
:1031E000804694F9190094F90510384401FB060053
:1031F00002F042FD064694F91800384402F03CFD06
:103200006A69E179CDE900124B464246314600F049
:1032100005F80120D8E60000A40000202DE9F843BD
:10322000364CDDE908560F4690460146994632462F
:103230002068FFF702FD2060324639466068FFF7DC
:10324000FCFC606032464146A068FFF7F6FCA060D7
:1032500032464946E068FFF7F0FCE060DDB1012D41
:1032600030D0022D15D102F0E7FCC7B2A06802F001
:10327000E3FCC6B2606802F0DFFCC5B2206802F071
:10328000DBFC00210091C0B23B463246294600F0EB
:10329000B5F8BDE8F88302F0CFFCC7B2A06802F031
:1032A000CBFCC6B2606802F0C7FCC5B2206802F071
:1032B000C3FC01B03B4632462946BDE8F043C0B2EC
:1032C00000F0E6B90E4902F00DFE4FF0FF3102F0BA
:1032D000E2FE616802F05EFB02F0AEFCC5B2A168DE
:1032E000206802F057FB02F0A7FC06490091C0B22B
:1032F00007230922294600F0F5FACAE7A4000020B6
:103300000000C0402A76000801464FF48062014860
:10331000FDF75AB8C4020020094910B5496A28B11E
:1033200001280AD001200870002010BD087800286C
:10333000FAD1FFF7EDFD012010BDFFF7E9FDF3E73E
:10334000A4000020FEE7000010B50021074C0A464B
:10335000002004EBC1131A54401CC0B28028FAD3D9
:10336000491CC9B20829F3D310BD0000C4020020D3
:10337000F0B57F282AD83F2928D88418802C02D974
:10338000C0F18002D2B2CC18402C02D9C1F1400366
:10339000DBB20126DFF838E087180B4414E001F0B7
:1033A000070206FA02F5CA0804460EEBC21207E04D
:1033B00012F804C02CEA050C02F804C0641CE4B244
:1033C000A742F5D8491CC9B28B42E8D8F0BD00002D
:1033D000C402002010B57F280CD83F290AD8064A1D
:1033E000CB0802EBC31301F007041A5C0121A140D2
:1033F0000A431A5410BD0000C40200202DE9F04316
:103400000446CF1807988846A518264660BBA7F142
:1034100001090AE041463046FFF7DCFF09F0FF01F1
:103420003046FFF7D7FF761CF6B2B542F2D84646D3
:103430006D1E09E031462046FFF7CCFFE8B2314669
:10344000FFF7C8FF761CF6B2B742F3D8BDE8F083A9
:10345000444605E021463046FFF7BCFF641CE4B259
:10346000A742F7D8761CF6B2B542F1D8EEE710B510
:1034700000204FF47A720021491C9142FCD3401C79
:103480009042F8D3012000F0B9FBBDE810400120C4
:1034900000F0BCBB70B500240646802525FA04F078
:1034A000304000D0012000F0B1FB012000F0A6FB6D
:1034B000002000F0A3FB641CE4B2082CEED3012032
:1034C00000F09CFBBDE87040002000F097BB10B5F9
:1034D000012000F09BFB012000F090FB002000F099
:1034E00095FBBDE81040002000F088BB10B500201F
:1034F00000F08CFB012000F081FBBDE810400120B2
:1035000000F084BB10B5FFF7B2FFAE2000F086FBE1
:10351000D52000F083FB802000F080FBA82000F085
:103520007DFB3F2000F07AFBD32000F077FB0020EA
:1035300000F074FB402000F071FBA12000F06EFB56
:10354000C82000F06BFBDA2000F068FB122000F0CE
:1035500065FB812000F062FBCF2000F05FFBD920EB
:1035600000F05CFBF12000F059FBDB2000F056FB83
:10357000302000F053FBA42000F050FBA62000F008
:103580004DFB8D2000F04AFB142000F047FBAF20DC
:1035900000F044FBFFF7D8FEBDE8104000F01ABB76
:1035A0002DE9F84391460C460646082B06D0062B1B
:1035B0004FF0000522D0DFF8C88046E00025DFF894
:1035C000C48006E038464946FCF76AFF60B16D1CCE
:1035D000EDB205EBC50108EB8100203007462AA1BA
:1035E000FCF75EFF0028EDD105EBC50108EB81007B
:1035F00000901023E1B2F0B21A463CE0DFF88C8074
:1036000006E038464946FCF74BFF60B16D1CEDB251
:10361000C5EBC50108EB8100183007461AA1FCF77D
:103620003FFF0028EDD1C5EBC50108EB8100A41ECA
:1036300000900C23E1B2F0B21A461CE0384649462D
:10364000FCF72EFF60B16D1CEDB205EB450108EBF8
:10365000C100143007460CA1FCF722FF0028EDD171
:1036600005EB450108EBC100641E761C00900A239F
:10367000E1B2F0B21A4600F035F9BDE8F883000077
:1036800012760008866B0008000000002E6F00080C
:10369000F0B57F282AD83F2928D88418802C02D951
:1036A000C0F18002D2B2CC18402C02D9C1F1400343
:1036B000DBB20126DFF838E087180B4414E001F094
:1036C000070206FA02F5CA0804460EEBC21207E02A
:1036D00012F804C08CEA050C02F804C0641CE4B2C1
:1036E000A742F5D8491CC9B28B42E8D8F0BD00000A
:1036F000C40200202DE9F04FADF23C4D16468A463B
:1037000083461D464FF480625B496846FCF75CFEC9
:103710007000C3B2C2B2ABEB0600AAEB0604CDF850
:103720003404E1B2C0B2FFF723FE284601F0E7FE01
:10373000524A534B01F00EFF01F04AFCE5B20AEB8E
:103740000609CDF830048FE0DDF834040BEB0607F2
:10375000C4B284E02846072101EAD000694604F09B
:103760007F0401EBC01005F03F05005D05F0070286
:1037700001219140084271D0504601F0C0FE0DF584
:10378000856203C2DDF8300402F0D8F80DF58062DE
:1037900003C201F071F90DF5816203C2A5EB0A00C5
:1037A00001F0ADFE0DF5826203C20DF581620CCA17
:1037B00001F0D0FE0DF5846203C20DF5806003C8F0
:1037C00001F034FB0DF5836203C2A4EB0B0001F0A2
:1037D00096FE0DF5816203C20DF583620CCA01F0FD
:1037E000B9FE0DF584620CCA01F024FC0DF585626A
:1037F0000CCA01F01FFC01F055FEC0B2CDF8200448
:10380000584601F07CFE0DF5836203C20DF5806021
:1038100003C801F00BFB0DF582620CCA01F09AFEA1
:1038200080460DF58060CDF8101403C801F024F92E
:103830000DF581620CCA01F08DFE4246DDF81034B0
:1038400001F092FF0DF583620CCA01F0F3FB01F069
:1038500029FEC0B2DDF82014FFF7BCFD641CA742AE
:103860003FF778AF6D1CEDB2A9453FF76DAF0DF294
:103870003C4DBDE8F08F0000C402002055098BD9F3
:10388000F4DC913F10B50C4640F0B00000F0C6F9F2
:10389000102040EA141000F0C1F904F00F00BDE858
:1038A000104000F0BBB9000008B5082B0DD0062B66
:1038B0000AD10A4B02EB420203EB4202C03A0092E9
:1038C0000823062200F00EF808BD054B03EB021298
:1038D000A2F50072102300920822F3E74C69000859
:1038E0003C6100082DE9FF5F1F46154681464CB23A
:1038F0007F287DD80026B2464FF00108002C14DA4C
:1039000038190297C7B2E043C11700EB517108EBB9
:10391000E10221F00701401A401C00F0FF0A0024D8
:1039200078B2D6B201287ADB01E03F2C77DCE1B235
:103930003B462A464846FFF71BFD7F1EF81707EB5C
:10394000507108EBE100C3B20020DFF8D8E064E07A
:1039500000215EE009EB01027F2A5CD8E71704EB47
:10396000577C00EBEC0BBBF1070F58DC0EEBCB17D1
:103970001EB31744019700973A7800EB060BDDF869
:1039800038C0ABF101076F438C4417F80C7027FA6D
:103990000AF73A43009F3A70DDF80880B8EBCB0F86
:1039A00035D90BFB05F717F80C70CAF1080C07FAAC
:1039B0000CF73A43019F3A7029E03A440192009291
:1039C000DDF83880177800FB05F28844039212F87E
:1039D00008202CF0070CA4EB0C0C02FA0CF2174395
:1039E000009A17700BF10102072A10DC019F00E01A
:1039F00015E0039A07F1800B97F8807012F8082001
:103A0000CCF1080C22FA0CF217438BF80070491C19
:103A1000C9B2A9429ED3401CC0B2984298D3BDE817
:103A2000FF9F0000C40200202DE9F84300249846BF
:103A300016460F468146254645E00A2808D1B8F1CA
:103A4000080F31D0082000253844641CC7B2E4B206
:103A5000691C01FB0890802806D9B8F1080F25D011
:103A600008203844C7B2002579B240292EDC325DE7
:103A70007E2A1DD900200090305D8DF80000641C66
:103A8000E0B24346325C401C8DF80120C4B26A4665
:103A9000305D8DF8020005FB089040B2FFF780FD15
:103AA000641CE4B2AD1C0DE01020CCE71020D8E778
:103AB00005FB0890C0B243463946FFF7F5FE641C8B
:103AC000E4B26D1CEDB2305D0028B6D1BDE8F883DC
:103AD0002DE9F84F0025DDE90A781E469246894611
:103AE00083462C4670E00A2820D1B8F1080F0AD08E
:103AF0004FF0080101EB090000F0FF0906D100BFFB
:103B00004FF0100004E04FF01001F3E74FF0080011
:103B1000A6EB0000C6B202D14FF0100001E04FF05A
:103B20000800B04253D800246D1CEDB2601C00FBAD
:103B300008F050451ED9B8F1080F0AD04FF008011F
:103B400001EB090000F0FF0906D100BF4FF01000A3
:103B500004E04FF01001F3E74FF00800A6EB00007F
:103B6000C6B202D14FF0100001E04FF00800B042A1
:103B70002DD800247A5D7E2A1BD900200090785D24
:103B80008DF800006D1CE8B24346395C401C8DF88E
:103B90000110C5B26A46785D8DF8020004FB08B0DA
:103BA00040B24FFA89F1FFF7FBFC6D1CEDB2A41C8B
:103BB00009E004FB08B0C0B243464946FFF774FE73
:103BC0006D1CEDB2641CE4B2785D00288BD12046F8
:103BD000BDE8F88F70B5084D002400212046FFF79E
:103BE00051FE05EBC410802100F029F8641CE4B2FA
:103BF000082CF2D370BD0000C402002002464FF42E
:103C000080710148FEF7AFBA000C014002464FF444
:103C100000710148FEF7A7BA000C014010B5044638
:103C2000FFF755FC7820FFF735FC0020FFF732FC4A
:103C30002046FFF72FFCBDE81040FFF757BC70B5DA
:103C40000D460646FFF743FC7820FFF723FC402093
:103C5000FFF720FC002404E0305DFFF71BFC641C30
:103C6000E4B2AC42F8D3BDE87040FFF73FBC704708
:103C7000704700000A480B49021D90F900303BB123
:103C8000012B09D000230B7407A151610370704709
:103C900001230B740AA1F8E702230B740EA1F4E7C9
:103CA00004020020A4000020E58589E6A087E9A39E
:103CB0008EE6A0BC5BE58F8DE79BB85D0000000041
:103CC000E58589E6A087E9A38EE6A0BC5BE9BCA0F8
:103CD000E6A0875D00000000E58589E6A087E9A3EE
:103CE0008EE6A0BC5BE79FA9E5BDA25D00000000D9
:103CF0001748184990F903203C2A10D0462A12D0C0
:103D0000502A14D05A2A16D0642A18D06E2A1AD0F3
:103D100011A24A613C21C17049B2C160704713A22F
:103D20004A614621F7E716A24A615021F3E719A23A
:103D30004A615A21EFE71CA24A616421EBE71FA206
:103D40004A616E21E7E722A24A617821E3E7000099
:103D50002800002068010020E8AEBEE7BDAEE8BD47
:103D6000ACE9809F5B36305D00000000E8AEBEE746
:103D7000BDAEE8BDACE9809F5B37305D0000000060
:103D8000E8AEBEE7BDAEE8BDACE9809F5B38305D14
:103D900000000000E8AEBEE7BDAEE8BDACE9809F24
:103DA0005B39305D00000000E8AEBEE7BDAEE8BDA7
:103DB000ACE9809F5B3130305D000000E8AEBEE7CB
:103DC000BDAEE8BDACE9809F5B3131305D000000E5
:103DD000E8AEBEE7BDAEE8BDACE9809F5B313230F6
:103DE0005D0000001B481C4990F90520AAB1012A7A
:103DF00017D0022A19D0042A1BD0062A1DD0082A5F
:103E00001FD00A2A21D015A2CA630021417149B2EC
:103E10004FF47A7251438161704714A2CA63012141
:103E2000F4E716A2CA630221F0E718A2CA630421CC
:103E3000ECE71AA2CA630621E8E71CA2CA630821BC
:103E4000E4E71EA2CA630A21E0E721A2CA630C21AB
:103E5000DCE700002800002068010020E5819CE8E4
:103E6000BDACE697B6E997B45B305D00E5819CE8B0
:103E7000BDACE697B6E997B45B315D00E5819CE89F
:103E8000BDACE697B6E997B45B325D00E5819CE88E
:103E9000BDACE697B6E997B45B345D00E5819CE87C
:103EA000BDACE697B6E997B45B365D00E5819CE86A
:103EB000BDACE697B6E997B45B385D00E5819CE858
:103EC000BDACE697B6E997B45B31305D0000000009
:103ED000E5819CE8BDACE697B6E997B45B31325D0D
:103EE000000000001848194990F90420012A13D055
:103EF000022A15D0042A17D0062A19D0082A1BD066
:103F00000A2A1DD012A28A620121017149B24FF41E
:103F10007A7251430161704711A28A620221F4E76B
:103F200013A28A620421F0E715A28A620621ECE757
:103F300017A28A620821E8E719A28A620A21E4E747
:103F40001CA28A620C21E0E7280000206801002002
:103F5000E8BDACE58AA8E697B6E997B45B315D00A9
:103F6000E8BDACE58AA8E697B6E997B45B325D0098
:103F7000E8BDACE58AA8E697B6E997B45B345D0086
:103F8000E8BDACE58AA8E697B6E997B45B365D0074
:103F9000E8BDACE58AA8E697B6E997B45B385D0062
:103FA000E8BDACE58AA8E697B6E997B45B31305D29
:103FB00000000000E8BDACE58AA8E697B6E997B432
:103FC0005B31325D00000000164A174992F9060085
:103FD000431C0ED088B1012813D0022815D0032825
:103FE00017D0042819D011A00865FF2090715070D7
:103FF000704712A008650020F8E714A008650120AA
:10400000F4E716A008650220F0E718A00865032071
:10401000ECE71AA008650420E8E71CA00865052065
:10402000E4E700002800002068010020E58F8DE80B
:10403000BDACE591A8E69C9F5B305D00E58F8DE807
:10404000BDACE591A8E69C9F5B315D00E58F8DE8F6
:10405000BDACE591A8E69C9F5B325D00E58F8DE8E5
:10406000BDACE591A8E69C9F5B335D00E58F8DE8D4
:10407000BDACE591A8E69C9F5B345D00E58F8DE8C3
:10408000BDACE591A8E69C9F5B355D00E58F8DE8B2
:10409000BDACE591A8E69C9F5B365D001A481B49C4
:1040A000021D90F901309BB1012B1AD0022B22D0B6
:1040B000174B4B615B078B6116A19162002149B2DE
:1040C000CA1701EB927222F00302891A41707047FD
:1040D000154B4B614FF081438B6114A1916201211B
:1040E000EDE74FF07E534B614FF083438B6114A19A
:1040F00091620221E3E7174B4B61174B8B6117A1CC
:1041000091620321DBE7000004020020A4000020EC
:104110009A99193EE58AA8E794BBE9809FE5BAA67B
:104120005BE4B8AD5D000000CDCC4C3EE58AA8E76D
:1041300094BBE9809FE5BAA65BE5BFAB5D000000DC
:10414000E58AA8E794BBE9809FE5BAA65BE585B35D
:104150005D000000CDCCCC3DAE47A13FE58AA8E78D
:1041600094BBE9809FE5BAA65BE685A25D000000EE
:1041700010B50C4C0C48217811B1FF290AD00DE084
:104180000121A17009A14161FDF714FE01F038FD84
:10419000606103E007A141610020A0702078C04366
:1041A000207010BD28000020CC000020E5819CE696
:1041B000ADA20000E8BDACE58AA80000FDF7DEBFB7
:1041C00030B58FB028216846FCF743F914210AA8BE
:1041D000FCF73FF901210804CDE900100024029406
:1041E00002250491CDE907504FF4E010099068468C
:1041F000FEF720F908B172B6FEE70F20CDE90A05F7
:104200004FF48060CDE90C4002210AA80E94FEF71D
:1042100045F8002801D072B6FEE70FB030BD7047F8
:1042200070B50268134B144C4FF08046984203D08F
:10423000B04201D0A04203D122F070054A682A435F
:10424000984203D0B04201D0A04203D122F440747E
:10425000CA6822434C6922F08002224302608A68C5
:10426000C2620A688262984201D109690163012130
:10427000416170BD002C01400004004010B501F008
:104280001F030121046A99408C430462016A9A4029
:104290001143016210BD000030B5036A026A22F0CA
:1042A000010202624268846924F073050C682C43A1
:1042B00023F002058B682B430A4DA8420BD123F053
:1042C0000805CB6822F440722B434D6923F00403A8
:1042D00015438A692A4342608461496841630362E5
:1042E00030BD0000002C014030B5026A036A23F0A3
:1042F00010030362436884690D6824F4E64444EAC9
:1043000005248D6822F0200242EA05120B4DA842D6
:104310000ED1CD6822F0800242EA05124D6923F4E5
:10432000406343EA85038D6922F0400243EA850336
:104330004360846149688163026230BD002C0140A2
:1043400030B5036A026A22F4807202624268C4696C
:1043500023F4007324F073050C682C438D6843EA42
:1043600005230C4DA8420ED1CD6823F4006343EA27
:1043700005234D6922F4405242EA05128D6923F467
:10438000806342EA05124260C4614968C163036206
:1043900030BD0000002C014030B5046A026A22F4EE
:1043A000805202624268C3690D6823F4E64343EA1F
:1043B00005238D6824F4005444EA0534064DA842D0
:1043C00004D14D6922F4804242EA85124260C36101
:1043D00049680164046230BD002C0140FEE74900D9
:1043E00050EAC12018BF04204A0D18BF40F0010058
:1043F00040F2FF72B2EB515F08BF40F002000128AB
:1044000008BF052070470907090E002804DB00F1EA
:10441000E02080F80014704700F00F0000F1E02069
:1044200080F8141D704700002DE9F74F144694B032
:104430000021C4E902111599079121F00045C949ED
:104440008D4206DC1599C4E9000117B00020BDE8D3
:10445000F08FC549DFF814A3A9423CDD0799C44E8B
:104460000029C44FC44A1599534619DD01F07CF95F
:10447000554506D0C14AC24B01F076F9C4E90001A6
:104480000AE04FF0D352BE4B01F06EF932463B4684
:1044900001F06AF9C4E9000117B00120BDE8F08F0E
:1044A00000F0C8FD554506D0B44AB54B00F0C2FD3A
:1044B000C4E900010AE04FF0D352B14B00F0BAFD5D
:1044C00032463B4600F0B6FDC4E9000117B04FF09C
:1044D000FF30BDE8F08FAB49A942159978DB21F098
:1044E000004183468846A84AA84B01F033F80022D1
:1044F000A74B00F09FFD00F0A5FF099000F0FFFF23
:1045000006460F469C4A534601F024F843465A4655
:1045100001F01EF980468A46984A994B3046394642
:1045200001F018F82A0D01250B924246534601F07E
:104530000FF9032DC4E9000139D00B98C1F30A51DA
:10454000401A05EB45111139814230DA9148C346D2
:10455000784400EB0510CDF80CA00C90D0E90023B6
:104560003046394600F0F6FF02460B4604910690AD
:104570005846039901F0F8F880468A4602460B46F1
:104580005846039901F0F0F8049B069A01F0ECF804
:1045900083460C9803913946D0E90223304600F057
:1045A000D9FF5A46039B01F0DFF86D1CBDE7079861
:1045B0000028A2BF099817B0BDE8F08F616881F0AC
:1045C00000416160099817B04042BDE8F08FFFE7F5
:1045D00084461598C1F31301C0F30A50A0F2F530D8
:1045E0004FEA601800F01F06C6F12000139000206B
:1045F0000690079041F4801E05206D4676B1664A0C
:1046000008EB00017A4452F8213002EB8101B340FB
:104610004A68139922FA01F1194305E05F4908EB52
:104620000002794451F82210A1FB0E27A1FB0C13C4
:104630001A449A4234BF0123002303EB070A05EB17
:104640008003D3E901B70F448F4234BF0121002119
:1046500093448B4411B1934502D903E0934501D2B1
:10466000012100E00021C3E901B7514445F82010C1
:10467000011EA0F10100C1DC0298059F00F100506D
:10468000800F12900298DDE90356800000F037FF9A
:10469000834628460D9100F049FF6FF01D0201F09E
:1046A000CCFCCDE90E01304600F040FF6FF03D023A
:1046B00001F0C3FC80468A46384600F037FF6FF0B1
:1046C0005D0201F0BAFC074642465346119100F0E4
:1046D000B1FCDDE90E2300F0ADFC5A460D9B00F065
:1046E000A9FC00250E465A4628460D9B01F03CF8D1
:1046F000DDE90E2301F038F84246534601F034F864
:104700003A46119B01F024F8DFF898A0244A53465A
:1047100000F020FF07468846234A244B31462846AE
:1047200000F018FF3A46434600F084FC07468846EE
:104730004FF0A84253463146284600F00BFF3A4658
:10474000434600F077FC159A12F0004F04D0129AFD
:1047500081F0004152421292C4E90001129817B050
:10476000BDE8F08FFB21E93F7CD90240FB21F93FF6
:104770007370032E8A19A33B000040543163621A00
:1047800061B4D03DFB21394183C8C96D305FE43F3E
:104790000000E03FD4350000503500003235000005
:1047A000182D4454FB21F93D3326A611460B113C2C
:1047B0002DE9FF4D21F0004807460C46B8F1795F1E
:1047C00008DA00F03FFE002801BF0020324904B0A3
:1047D000BDE8F08D3A4623461046194600F0BAFE71
:1047E000054602462D480E460B460621784400F049
:1047F0005DF82A46334600F0ADFEDDE9022382462D
:104800008B463846214600F0A5FE04460F46524628
:104810005B462846314600F09DFE22463B4600F0AE
:10482000A3FF07468A464FF0FF322846314601F083
:1048300004FC1B4A90450ADA3A46534600F094FFBE
:1048400004B00022BDE8F04D134B00F081BF154AC3
:104850004245A8BFA8F500154FF00004B8BF124D9F
:1048600022462B4600F080FF0646884622462B460D
:104870000020094900F078FF04460D463A465346A9
:104880003046414600F070FF04B022462B46BDE89A
:10489000F04D00F05DBF00000000F03F0833000065
:1048A0003333D33F0000E93F0000D23F2DE9F04110
:1048B0004F1E00EBC7010446D1E9000115461E4614
:1048C00037F006020DD02A46334600F043FE7F1E25
:1048D00004EBC703D3E9002300F0ACFB37F006027A
:1048E000F1D1022F25D0042F13D0062F18BFBDE819
:1048F000F0812A46334600F02DFED4E90A2300F069
:1049000099FB2A46334600F025FED4E9082300F03F
:1049100091FB2A46334600F01DFED4E9062300F041
:1049200089FB2A46334600F015FED4E9042300F043
:1049300081FB2A46334600F00DFED4E9022300F045
:1049400079FB2A46334600F005FED4E90023BDE892
:10495000F04100F06FBB00002DE9FF4D054621F04E
:10496000004084B00C46B0F1795F0BDA2846FFF7BF
:1049700036FD042808BF00F06FF8284608B021462D
:10498000BDE8F08D2A460B46104600F0E3FD0646D2
:104990000F462A46234600F0DDFD804626488A461B
:1049A00032463B4605217844FFF780FF8346109846
:1049B000029160B3214A224B4046514600F0CAFDA5
:1049C000CDE900015A4640465146029B00F0C2FD27
:1049D00082468846DDE906014FF0FF3201F02DFBEB
:1049E0005246434600F0C0FE32463B4600F0B2FD60
:1049F000DDE9062300F0B8FEDDE9002300F0B4FE97
:104A000008B02A462346BDE8F04D00F0A1BE0B4693
:104A10005A463046394600F09DFD084A084B00F0E2
:104A200009FB4246534600F095FD08B02A4623464E
:104A3000BDE8F04D00F0FEBA46320000495555552C
:104A40005555C5BF012201F0F8BA002213461046A1
:104A5000114600F09FBB0000024A0020110701F040
:104A6000ECBA000001FDFFFF30380A2801D2012016
:104A7000704700207047000000B5244B21F0004231
:104A800087B09A42DCBF0022134629DD204B9A42B0
:104A900008D140B94FF00100FBF74AFDFFF7D5FF01
:104AA00007B000BD03DBFFF7CDFF07B000BD02AAD2
:104AB000FFF7BAFC10F0030104BF0DF1080C9CE8ED
:104AC0000F000DD0012001290ED0022914D00DF1C4
:104AD000080C00909CE80F00FFF73EFF07B000BDF8
:104AE000FFF766FE07B000BD0DF1080C00909CE8D2
:104AF0000F00FFF731FF05E00DF1080C9CE80F00F7
:104B0000FFF756FE07B081F0004100BDFB21E93FF1
:104B10000000F07F86B0FDF739FBFFF751FBFDF792
:104B2000DFFFFEF74FF8A948FDF7E4FE4820FDF748
:104B30005FF9FEF7E7FC00F017FAA54FDFF8949253
:104B4000A54EA64DA64CDFF89CA24FF002084FF0F0
:104B5000010B00BFFDF72EF901F052F860603978C3
:104B600000297DD03268D9F80010114481423ADA28
:104B70009D4A12681144814201DA306009E000F078
:104B800049F9FDF717F901F03BF8CAF8000085F87C
:104B900001802878012823D1944890F90010481CFE
:104BA00019D094F90000884213D180219048FDF774
:104BB000D5FA80F0010280218D48FDF7D4FAFDF787
:104BC000F9F801F01DF8CAF8000085F8018000200E
:104BD00000E0401C207094F90000401C00D12070BF
:104BE00085F8008008E000F01BF92878022801D140
:104BF00085F8008085F800B0687802287ED1FDF73E
:104C0000D9F87C490090DAF800000968084401F0FE
:104C100033F8009901F05CF836D2774885F801B096
:104C2000006800F06CFC0022744B00F093FC05223D
:104C300001F003FA724A734B00F0ACFACDE90001BF
:104C4000CDE90201614801680591896A6E480068F2
:104C50000490B0FBF1F000F069FCDDE9022300E014
:104C600098E000F097FA00F01DFC0599C8625748DB
:104C70000068816A0498B0FBF1F000F057FCDDE9B0
:104C8000002300F087FA80E0DAF8000000F0F4FF7B
:104C90000090FDF78FF8009901F024F900F04EFE26
:104CA000C4E90201DAF8000000F029FCCDE90001B6
:104CB000FDF780F800F042FEDDE9002300F054FD2E
:104CC0000022524B00F066FACDE902014A48006822
:104CD00000F015FC0022494B00F03CFC052201F0DD
:104CE000ACF9474A474B00F055FACDE90001374887
:104CF00001680491896A4448006800E04CE0B0FB18
:104D0000F1F000F013FCDDE9002300F043FADDE9E7
:104D1000022300F01FFC00F0C5FB0499C862DAF81A
:104D2000000000F0ECFBCDE90001FDF743F800F0D6
:104D300005FEDDE9002300F017FD0022334B00F0F3
:104D400029FACDE902012C48006800F0D8FB0022C6
:104D50002A4B00F0FFFB052201F06FF9284A294B8E
:104D600000F018FACDE9000118480068816A264869
:104D70000068B0FBF1F000F0D9FBDDE9002300F0A2
:104D800009FADDE9022300F0E5FB00F08BFB0F4997
:104D9000C86001E000F03EF800F098F8FEF7D4FAA1
:104DA0001B48FEF7B1FA0020FEF7B6FA38B9FDF756
:104DB00067FF10B10120FEF7AFFAFDF73CFFFEF7E9
:104DC00009FF0120FDF78EF8C4E600007C020020F8
:104DD0002A000020380000203C000020580000205D
:104DE000000000205000002040000020290000208A
:104DF000000801405400002034000020000018404A
:104E0000CDCCCCCCCCCCFC3F3000002000005940B5
:104E1000B376000800210148FDF7F8BD7C020020B0
:104E200000210148FDF7A8BD7C02002000B5254BFC
:104E300021F0004287B09A4203DC00221346009220
:104E40002BE0214B9A4208D140B94FF00100FBF70B
:104E50006FFBFFF7FAFD07B000BD03DBFFF7F2FDC4
:104E600007B000BD02AAFFF7DFFA10F003014FF010
:104E700001000DD0012914D002291AD00DF1080C1F
:104E80009CE80F00FFF794FC07B081F0004100BDE3
:104E90000DF1080C00909CE80F00FFF75DFD07B0D6
:104EA00000BD0DF1080C9CE80F00FFF781FC07B076
:104EB00000BD0DF1080C00909CE80F00FFF74CFDC1
:104EC000E2E70000FB21E93F0000F07F2DE9F04719
:104ED000DFF88080D8F80C0000F011FB00221E4B98
:104EE00000F038FB052201F0A8F81C4A1C4B00F02A
:104EF00051F91C4F81468A463E68B06AD8F808507E
:104F0000B5FBF0F000F012FB4A46534600F042F9C0
:104F1000C8E90801B06A4C46D046B5FBF0F000F095
:104F200005FB2246434600F035F900F0BBFAF0627B
:104F30003E68B06AB5FBF0F000F0F8FA224643464E
:104F400000F028F900F0AEFAF860F06A40087063EB
:104F5000BDE8F0872800002000001840CDCCCCCC64
:104F6000CCCCFC3F7C02002010B5FDF72DFA0149A6
:104F7000886010BD2800002010B500290AD00878EC
:104F8000002807D005487844FBF78AFA002801D0AA
:104F9000002010BD0248784410BD0000162E00000D
:104FA0000E2E000010B500290AD00878002807D07E
:104FB00005487844FBF774FA002801D0002010BDA2
:104FC0000248784410BD0000062E0000FE2D0000AF
:104FD00021F00042A2F16052B2F5801F01F00043BF
:104FE00028BFD2F17F6C0BD95FEA001C43EAC202F2
:104FF00042EB507018BF704728BF20F00100704787
:10500000B2F5801FBCBF184670474FEA410C1CF533
:10501000001F02D2084600F056BF70B500F044FBF6
:1050200000000089FFF7F6BF4FF00040A0F58000B8
:105030007047000010B591EA030F48BF83F00043AA
:1050400000F19A83841A71EB030C05D2121943EB19
:105050000C03001B61EB0C01DFF824E14FEA115453
:10506000A4EB135C1EEA430F18BF9EEA445F73D0A3
:1050700023EA0E03DCF1200E21EA045143F48013ED
:1050800032D322FA0CFE10EB0E0023FA0CFE41EB99
:105090000E01CCF1200E03FA0EFE10EB0E0051F1C2
:1050A0000001B1F5801FCCF1200E32D201EB04518A
:1050B00012FA0EF2BDE8104058BF7047401C38BFCE
:1050C0005FEA420218BF7047002814BF20F00100B9
:1050D00041F100014FEA410313F5001F38BF70474B
:1050E000A1F1C04100F02EBB012A43EB0302ACF159
:1050F000200CDCF11F0E32BF4FF0000E23FA0CF330
:1051000010EB030041EB0451B4EB115FD0D0A1EBE5
:10511000045101F5801149085FEA300001EB0451A8
:105120000ED350F1000038BF12FA0EFE08D1BDE8D0
:105130001040C9E7401C38BF5FEA4202CAD1C3E74A
:10514000BDE810404FEA410313F5001F38BF704718
:10515000A1F1C04100F0F6BA9EEA445F08D011EA1E
:105160005E0FBDE8104004BF01F000410020704711
:10517000BDE8104070B500F097FA00BF64FBBE3E7A
:105180000000E0FF02494FF0000000F024BF00BF24
:105190000000F87F2DE9C04130B4DFF8A0C23CEA3E
:1051A000111418BF3CEA131400F0EC8081EA0305E7
:1051B0001CEA111444EAD57418BF1CEA131500F058
:1051C000C780A4EB05044FF0004545EAC12145EA3C
:1051D000C32341EA505143EA525304F17F74994288
:1051E00004F500344FEAC0204FEAC22208BF9042C3
:1051F00000F09C804FEA13650FF24016765D4FEA8F
:10520000134506FB05F7C7F1807706FB07F74FEA62
:10521000D737A7FB03687642C8F58038A7FB06CED0
:1052200038BFA8F1010807FB08E64FF0000EA6FB07
:10523000028CE6FB03CEDCF1000CCEF1004E38BF51
:10524000AEF1010EA6FB0C584FF000074FF0000521
:10525000E6FB0E87A1FB08C6A0FB07CE16EB0E06E9
:1052600045F10005E1FB076515F1E04E7EBFA4F5B1
:1052700080345FEA46066D4116F1800745F100056E
:105280004FEA17274FEA066647EA0567A6F1DE46AA
:10529000B6F1805F4FEA15251FD9384624F0010C7E
:1052A00005EBC471BCF1FE6F01EB0C1102D8F0BC30
:1052B000BDE8008124425CBF01F5801E9EEAC47FE8
:1052C00002D4F0BCBDE80081244238D4F0BCA1F186
:1052D000C041BDE8004100F035BA4FEAD22242EAAF
:1052E00043524FEAD323A7FB02864FEAD02040EA7D
:1052F000415007FB03661EEA0E0F4FEAD12105FB62
:10530000026658BFA6EB0056B6EB00564FEA520EA7
:105310004EEAC37E18EB0E0E56EB530EBDD518EBBE
:1053200002085E417F1C55F10005B6E74FF4801579
:105330004FF000074FF000064FF00008ADE7F0BC5B
:105340004FF0000001F1C04101F00041BDE80081D3
:1053500011EA0C1F0CEA131500D00CE013EA0C1F25
:1053600000F025804FF00000F0BC81EA030101F05D
:105370000041BDE80081F0BCBDE8004181EA0301C5
:1053800000F0E0B9F0BCBDE8004170B500F08CF968
:10539000097EFC3E00F007B881EA03014FF00000EF
:1053A00001F00041704781EA030100F0CBB9F0BC85
:1053B000BDE800414FF0000021497047FFFDFBF9B7
:1053C000F7F5F4F2F0EEEDEBE9E8E6E4E3E1E0DE38
:1053D000DDDBDAD8D7D5D4D3D1D0CFCDCCCBCAC8AA
:1053E000C7C6C5C4C2C1C0BFBEBDBCBBBAB9B8B7D1
:1053F000B6B5B4B3B2B1B0AFAEADACABAAA9A8A8C4
:10540000A7A6A5A4A3A3A2A1A09F9F9E9D9C9C9B91
:105410009A9999989797969595949393929191903C
:105420008F8F8E8E8D8C8C8B8B8A898988888787CD
:105430008685858484838382828181800000FF0742
:105440000000F87F4FEA41034FEA5353A3F580630E
:10545000D3F11E03C8BFD3F1210C0CDD4FF0004285
:1054600042EAC12242EA505232FA03FC8CEAE17C61
:10547000ACEBE1707047102BC4BF0020704703F500
:10548000787CBCF1FF3F04D06FF0004282EA21003B
:10549000704770B500F008F94992248000207047E9
:1054A000F2E700004FEA1153A3F58063D3F11E0326
:1054B000A8BFD3F1200C08DB4FF0004242EAC12222
:1054C00052EA505232FA03F0704709420BD4102BC3
:1054D000C4BF0020704703F5787CBCF1FF3F05D0C6
:1054E0004FF0FF3070474FF00000704770B500F08C
:1054F000DBF800BF4992248000207047F0E710F0ED
:10550000004248BF4042B0FA80F310FA03F10AD0DB
:10551000C3F11D0303F580634FEA415002EB0352D0
:1055200002EBD12170474FF000007047B0FA80F3D2
:1055300010FA03F10AD0C3F11D0303F580634FEAAB
:1055400041504FEA035202EBD12170474FF0000067
:1055500070470000DFF848C170B51CEA111E1EBF7D
:105560001CEA13159EEA0C0F95EA0C0F00F06F80F1
:1055700081EA030423EA4C134EEAD47E21EA4C115B
:1055800041F4801143F48013AE44A1FB024CA0FB14
:105590000365AEF17F7E361955EB0C05A1FB034C7C
:1055A0004CF10003A0FB021C16EB0C06654153F105
:1055B0000003094218BF46F0010613F4007F0BD127
:1055C0004FEA03314FEA0530340341EA155140EA0E
:1055D00016506FF003020AE04FEAC3214FEAC520DC
:1055E000F40241EA555140EA56506FF0020202EBD4
:1055F0002E4201EB025585EACE710AD05FEA440CD7
:1056000018BF24F0004450F1000041F1000120EAED
:10561000D47040F2FE7C624500D270BDA84214BF37
:105620004FF080444FF04044002E08BF0024BEF1EC
:10563000806FA8BFA1F1C041BDE8704080F28280B8
:105640004FF0000001F1C04101F0004170479EEAB7
:105650000C0F0CEA131518BF95EA0C0F06D04FF08B
:10566000000081EA030E0EF0004170BD00F01CF84E
:105670008900013E00F007B800F009B84FEA430C7A
:105680005FEA5C5C08D081EA030100F05BB84FEA96
:10569000410C5FEA5C5CF6D14FF0000001497047B5
:1056A0000000FF070000F87F0EF1020E2EF0030E3F
:1056B0005EF8046B364205D4012A43EB030515F569
:1056C000001F12D8012841EB010C1CF5001F0CD85B
:1056D0000ED14FEAD17C15F5001F0CEB4C0C0CF1F0
:1056E000020C08BF4CEBD37C04E04FF0080C01E047
:1056F0004FEAD37C0CEB4C0526FA05F606F00706BC
:10570000B6F1040C06D20EEB860CBDE870404CF0EE
:10571000010C6047DFE80CF0090B02024FF000417A
:105720004FF00000A1F5002170BD19461046012878
:1057300051EB010418BFD4F5001484BF002001F020
:10574000004170BD0808A0F500114FEA3101704713
:1057500091EA030F10B581F000413FF573AC83F07F
:10576000004300F009B8000010B591EA030F48BFEC
:1057700083F000433FF566AC841A71EB030C07D24B
:1057800012198CF0004C43EB0C03001B61EB0C0175
:10579000DFF8A4E14FEA1154A4EB135C1EEA430FB7
:1057A00018BF9EEA445F00F0B08023EA6E035242C5
:1057B00021EA0451C3EB6E0338BF5B1EDCF1200EFF
:1057C00025D322FA0CFE10EB0E0043FA0CFE41EB3F
:1057D0000E01CCF1200E03FA0EFE10EB0E0051F17B
:1057E0000001CCF1200E29D412FA0EF201EB045183
:1057F000BDE8104058BF7047401C1CBFB2F1004FBD
:10580000704700280CBF491C20F00100704712EBC4
:10581000020E43EB030218BF4FF0010E4EEA4202A4
:10582000ACF1200CDCF11E0E54D943FA0CFE10EB47
:105830000E0051F1FF31CCF11E0ED5D50EF1010E47
:1058400012FA0EFE404141EB010101EB445C5FEABC
:105850005C5C10D910EBDE7001EB045138BFBEF177
:10586000004FBDE8104018BF704700280CBF491C0E
:1058700020F00100704730D24FEAD42C11F500110E
:1058800024F400641BD0B1FA81F20B3AA41AA41ECE
:10589000D2F12003914030FA03F31943904001EB19
:1058A000CC71002C01EB0451BDE81040A8BF70473B
:1058B00001F1C0414FF0000001F000417047B0FA23
:1058C00080F310FA03F100D110BDE41A173C48052B
:1058D000C90AE4E701EB045110BD491001EB045182
:1058E000BDE810404FEA300002E04FF00001704781
:1058F0004A0008BF0042F8D0B2F5001F28BF704729
:1059000001F000414FF0000070479EEA445F07D06D
:1059100011EA5E0FBDE8104004BF0021002070476F
:10592000BDE8104070B5FFF7BFFE00BF40DFF63E98
:1059300083F00041104670470000E0FF43004FEA4B
:10594000D30C4FEA3C0C43401FBF40070CF16051A1
:1059500013F0FE4F70471CF0006F03D100200CF0D5
:10596000004170470CF0004343EA507010B540EA24
:10597000CC0000F062FA00BF000000924FEA000184
:10598000FFF7E0BE4FF000414FF00000A1F500210D
:105990007047000090EA010F48BF81F0004100F11C
:1059A000A882421A3CBF801A89184FEAD0524FF0A1
:1059B0007F4C1CEA410FA2EBD15318BF9CEA026F47
:1059C00000F03B804FF0004C4CEA00204CEA0121F3
:1059D00021FA03FC10EB0C0C1ED202F1FF325FEA3D
:1059E0001C2040EBC25038BF70471CF07F0F4FEABD
:1059F000400C18BFBCF17F4F38BF7047C3F1200384
:105A0000994008BF20F00100BCF17F4F38BF7047BC
:105A1000A0F1C04000F057BA4FEA3C00000A40EB4A
:105A2000C25028BF1CF0FF0F4FEA400CE6D018BF51
:105A3000BCF17F4F38BF7047EAE79CEA026F05D0A0
:105A400010EA5C0F08BF00F00040704710B500F08E
:105A5000F4F900BF64FBBE3E014800F0BCBA00BFD1
:105A60000000C07F401058BFC0F14040491058BFEF
:105A7000C1F140418142EFF3008070474FF47F0C49
:105A80001CEAD0121EBF1CEAD11392EA0C0F93EA53
:105A90000C0F00F0858090EA010F48BF42F480723D
:105AA00040F4000C41F400002CF07F4120F07F40D6
:105AB00000B58142A2EB03020FF2081CACEB504E82
:105AC000C0F100009EF800E04FEA4E0E00FB0EFC15
:105AD00038BF49004FEA2C1C02F5FA020CFB0EF30A
