:020000040800F2
:10000000C806002089010008AF0E0008A50D0008F1
:10001000AD0E00088F020008E51000080000000087
:10002000000000000000000000000000B30E000807
:100030009102000800000000B10E0008B50E000893
:10004000A3010008A3010008A3010008A301000800
:10005000A3010008A3010008A3010008A3010008F0
:10006000A3010008A3010008A3010008A3010008E0
:10007000A3010008A3010008A3010008A3010008D0
:10008000A3010008A3010008A3010008A3010008C0
:10009000A3010008A3010008A3010008A3010008B0
:1000A000A3010008A3010008A3010008A3010008A0
:1000B000A3010008A3010008A3010008A301000890
:1000C000A3010008A3010008A3010008A301000880
:1000D000A3010008A3010008A3010008A301000870
:1000E000A3010008A3010008A301000800F002F822
:1000F00000F03AF80AA090E8000C82448344AAF188
:100100000107DA4501D100F02FF8AFF2090EBAE885
:100110000F0013F0010F18BFFB1A43F0010318473B
:100120008C170000AC170000103A24BF78C878C1C3
:10013000FAD8520724BF30C830C144BF04680C60ED
:10014000704700000023002400250026103A28BF35
:1001500078C1FBD8520728BF30C148BF0B60704739
:100160001FB51FBD10B510BD00F058F81146FFF7C0
:10017000F7FF00F0C9FF00F076F803B4FFF7F2FFD5
:1001800003BC00F07DF8000009488047094800479B
:10019000FEE7FEE7FEE7FEE7FEE7FEE7FEE7FEE737
:1001A000FEE7FEE704480549054A064B7047000094
:1001B000170F0008ED000008C8000020C806002046
:1001C000C8020020C80200204FF0000200B513460C
:1001D00094469646203922BFA0E80C50A0E80C5067
:1001E000B1F12001BFF4F7AF090728BFA0E80C5018
:1001F00048BF0CC05DF804EB890028BF40F8042B11
:1002000008BF704748BF20F8022B11F0804F18BF7D
:1002100000F8012B7047704770477047754600F033
:100220002BF8AE4605006946534620F00700854688
:1002300018B020B5FFF7B6FFBDE820404FF000062C
:100240004FF000074FF000084FF0000B21F00701BE
:10025000AC46ACE8C009ACE8C009ACE8C009ACE801
:10026000C0098D46704710B50446AFF300802046A4
:10027000BDE81040FFF781BF0048704768000020CC
:1002800001491820ABBEFEE7260002007047FEE7DA
:100290007047000070B5044600F004F90546601C84
:1002A00002D004480078044400F0FCF8401BA0424F
:1002B000FAD370BD000000202DE9F84FDFF8B891A7
:1002C0000024A9F1040B23460F2709F1040AABF11E
:1002D000040EC9E00125A5402A40AA427DD1674EFF
:1002E000D1F804C0ACEB0608B44532D014DCBCF144
:1002F000030F3AD009DCBCF1000F2AD0BCF1010F8A
:100300001CD0BCF1020F31D11DE0BCF1110F17D090
:10031000BCF1120F2AD119E0B8F5881F19D006DCFC
:10032000B8F5803F15D0B8F5801F1FD111E0B8F5A2
:10033000001F0ED0B8F5041F18D10AE0CB6815E0F5
:10034000CB681B1D12E0CB6808330FE0CB680C3381
:100350000CE08B682BB1012B4FF0080303D04561F3
:1003600004E0042302E0056100E00023FF2A01D835
:10037000064601E000F104064FEA840501D9A5F123
:100380002005D6F8008007FA05FC28EA0C0803FAD5
:1003900005F548EA0508C6F800804D68ED0062D50D
:1003A000374DAE6946F00106AE61AD6924F0030633
:1003B00005F001050095334D06EB050CDCF80850FF
:1003C000A607360F07FA06F825EA0805DFF8B88011
:1003D000404503D14FF0000817E044E0DFF8AC805F
:1003E000404502D14FF001080FE0DFF8A4804045FE
:1003F00002D14FF0020808E0DFF89880404502D1B2
:100400004FF0030801E04FF0040808FA06F848EA44
:100410000508CCF808804D68D9F80060ED024D461B
:1004200001D5164300E096432E604D68DAF800606F
:10043000AD02554601D5164300E096432E604D6847
:10044000DBF80060AD035D4601D5164300E096433E
:100450002E604D68DEF80060ED03754601D5164349
:1004600000E096432E60641C0D682A46E5407FF448
:1004700031AFBDE8F88F0000080401400000111002
:10048000001002400000014000080140000C014043
:1004900000100140001401400AB1016170470904D5
:1004A000FBE7000001488068704700000000002062
:1004B0000248816802781144816070470000002082
:1004C000074810B5016841F010010160032000F0F9
:1004D0005FF80F2000F006F800F024F8002010BDAF
:1004E0000020024070B50D4D04464FF47A71287813
:1004F000B1FBF0F00A490968B1FBF0F000F0B6FA80
:1005000048B9102C07D200222146501E00F020F8D6
:1005100000206C6070BD012070BD00000000002054
:100520000C000020094808B5816941F00101816192
:10053000816901F001010091C16941F08051C161FF
:10054000C06900F08050009008BD0000001002401B
:10055000F0B40E4B1B680C46C3F30223C3F107052E
:10056000042D00D90425191D072901D2002300E01C
:10057000DB1E012606FA05F1491E214099409E40E6
:10058000761E16403143F0BC00F0ADBD0CED00E02E
:10059000064900F0070208684FF6FF03184040EADA
:1005A0000220034A10430860704700000CED00E091
:1005B0000000FA052DE9F0470F46050061D0434ED3
:1005C000306800F00700B84209D2306820F0070018
:1005D00038433060306800F00700B84251D12868D5
:1005E0003B4C810712D5400703D5606840F4E060BA
:1005F00060602878000703D5606840F46050606050
:100600006068A96820F0F000084360602878C0079F
:1006100028D06868012810D02168022810D08907E6
:1006200000292EDA616821F0030101436160FFF7C0
:1006300039FF804641F288390DE021688903EFE7F0
:100640008901EDE7FFF72EFFA0EB0801494502D92C
:100650000320BDE8F0876068696800F00C00B0EB2B
:10066000810FEFD1306800F00700B8420BD9306835
:1006700020F0070038433060306800F00700B842CF
:1006800001D00120E5E72878400705D56068E968D2
:1006900020F4E060084360602878000706D56068B1
:1006A000296920F4605040EAC100606000F028F839
:1006B0006168084AC1F30311515CC84006490860EB
:1006C00006480068FFF70EFF0020C2E70020024046
:1006D00000100240921800080C00002004000020C6
:1006E0000448054900684968044AC1F3C221515CC5
:1006F000C84070470C00002000100240A2180008FB
:100700000E4A51680E4801F00C03042B11D0082B3F
:100710000FD10C48C1F38343C903C05C0AD55168AB
:10072000084AC1F34041921E515C054A5043B0FB58
:10073000F1F0704704494843704700000010024040
:1007400000127A008218000800093D002DE9F84FD8
:10075000040070D02078C04DC00749D06868C0F34D
:100760008100012807D06868C0F38100022809D100
:100770006868C00306D52868800339D560680028FA
:10078000E7D035E06068B0F5803F0BD010B1B0F530
:10079000A02F11D0286820F480302860286820F429
:1007A000802002E0286840F480302860606890B1C2
:1007B000FFF778FE06460AE0286840F480202860AB
:1007C000F0E700BFFFF76EFE801B642873D828682F
:1007D0008003F7D50CE0FFF765FE064605E000BF95
:1007E000FFF760FE801B6428F0D828688003F7D4E8
:1007F00020789A4E80074FF001094FF0000839D554
:10080000686810F00C0F07D06868C0F381000228F8
:1008100009D16868C00306D42868800714D5206908
:10082000012808D110E02069B0B1C6F80090FFF7A8
:1008300039FE074605E00AE1FFF734FEC01B022837
:10084000C4D828688007F7D52868616920F0F800C7
:1008500040EAC10028600DE0C6F80080FFF722FEE4
:10086000074604E0FFF71EFEC01B022823D82868B5
:100870008007F7D4207800072CD57948A169D9B131
:10088000C0F80090FFF70EFE074604E0FFF70AFEEF
:10089000C01B02280FD8686A8007F7D571484FF44B
:1008A000FA510068B0FBF1F0009000BF0098411EC3
:1008B0000091FAD20EE080E0C0F80080FFF7F2FD70
:1008C000074604E0FFF7EEFDC01B022875D8686AF2
:1008D0008007F7D42078400760D5E8690027C0007A
:1008E00008D4E86940F08050E861E869012700F029
:1008F000805000905C480168C90513D401688346A4
:1009000041F480710160FFF7CDFD824606E000BF33
:10091000FFF7C8FDA0EB0A0064284ED8DBF8000002
:10092000C005F5D5E06801280AD008B1052813D024
:10093000286A20F001002862286A20F0040002E002
:10094000286A40F001002862E06841F2883B98B1D3
:10095000FFF7A8FD82460BE0286A40F004002862F9
:10096000EEE700BFFFF79EFDA0EB0A0159455AD8FC
:10097000286A8007F6D50CE0FFF794FD824605E073
:10098000FFF790FDA0EB0A0159454CD8286A800773
:10099000F6D41FB1E86920F08050E861E06988B3BF
:1009A0006968C1F38101022944D00228C6F8608039
:1009B00004D0FFF777FD044638E034E0FFF772FD1E
:1009C000074604E0FFF76EFDC01B02282BD82868FD
:1009D0008001F7D4206AB0F5803F05D16868A1682E
:1009E00020F4003008436860D4E9080108436968CE
:1009F00021F4741108436860C6F86090FFF752FD57
:100A0000044606E025E000BFFFF74CFD001B02286E
:100A100009D828688001F7D51BE000BFFFF742FD29
:100A2000001B022802D90320BDE8F88F2868800146
:100A3000F4D40EE00128F7D06868226A00F480310F
:100A4000914204D1616A00F47010884201D0012003
:100A5000EAE70020E8E70000001002400000424200
:100A6000800442420C0000200070004010B5401E7F
:100A7000B0F1807F01D3012010BD4FF0E024606110
:100A80000F21601700F02FFB0020A06107202061DC
:100A9000002010BD70B590F83C20012A26D001241A
:100AA00080F83C40022280F83D2003685A689D6827
:100AB00022F070060A6832435A600D4B02689A426F
:100AC00008D0B2F1804F05D00A4B9A4202D00A4BAF
:100AD0009A4204D1496825F080031943916080F857
:100AE0003D40002180F83C10084670BD022070BDDA
:100AF000002C0140000400400008004000B585B013
:100B00000021009101910291039100680B498842F4
:100B100011D10B48816941F0040181618069694606
:100B200000F0040004904020009002200190039007
:100B30000448FFF7C1FB05B000BD00000004004001
:100B4000001002400008014070B5044690F83C00D7
:100B500000260D4601280FD0012084F83C006AB120
:100B6000042A1DD0082A2FD00C2A3FD001260020AD
:100B700084F83C00304670BD022070BD206800F053
:100B80000FFA2068816941F008018161206881695C
:100B900021F004018161206881692A69114311E013
:100BA000206800F025FA2068816941F400618161C4
:100BB0002068816921F480618161206881692A69E6
:100BC00041EA02218161D2E7206800F03DFA206805
:100BD000C16941F00801C1612068C16921F00401C7
:100BE000C1612068C1692A69114311E0206800F0E1
:100BF00057FA2068C16941F40061C1612068C16988
:100C000021F48061C1612068C1692A6941EA022139
:100C1000C161ACE710B5040003D094F83D0010B1F9
:100C200007E0012010BD002084F83C00204600F0C1
:100C30001FF8022084F83D00211D206800F06CF9A7
:100C4000012084F8460084F83E0084F83F0084F8D0
:100C5000400084F8410084F8420084F8430084F89E
:100C6000440084F8450084F83D00002010BD0000D9
:100C700008B500680649884208D10648C16941F0B4
:100C80000201C161C06900F00200009008BD0000CF
:100C9000000400400010024010B50446022249B191
:100CA00004290ED0082913D094F84100012816D049
:100CB000012010BD94F83E000128F9D184F83E20AF
:100CC0000FE094F83F000128F2D184F83F2008E0BB
:100CD00094F840000128EBD184F8402001E084F82A
:100CE00041200122206800F04DF90F492068884218
:100CF00003D1426C42F4004242642068884208D02A
:100D0000B0F1804F05D00949884202D00849884295
:100D100004D1816801F00701062903D0016841F080
:100D200001010160002010BD002C014000040040C2
:100D30000008004030B504460D460068002200F06F
:100D400021F9174B41F2111120688A10984209D1FC
:100D5000036A0B4206D1036A134203D1436C23F4A6
:100D6000004343642068036A0B4206D1016A1142C2
:100D700003D1016821F00101016001203DB1042D82
:100D800008D0082D09D084F84100002030BD84F837
:100D90003E00FAE784F83F00F7E784F84000F4E704
:100DA000002C0140FEE700002DE9F04186B0002450
:100DB0001F480094019402940394816941F020013A
:100DC0008161816901F020010491816941F0040190
:100DD0008161816901F004010491816941F0080198
:100DE00081618069134F00F0080004900022802187
:100DF0003846FFF751FBDFF84080002201214046D2
:100E0000FFF74AFB802001250226CDE90005CDE948
:100E1000024669463846FFF74FFA03960095CDE93A
:100E2000015469464046FFF747FA06B0BDE8F08135
:100E30000010024000080140000C014010B58AB0CB
:100E4000002407941C2168460894FFF7BDF9164852
:100E5000144901604821C0E901144FF6FF71C0E94F
:100E600003148461FFF7D6FE08B172B6FEE707945B
:100E700007A90D480894FFF70DFE08B172B6FEE70A
:100E80006020CDE9000402940022694606480494DB
:100E9000FFF75AFE08B172B6FEE70348FFF72EFED1
:100EA0000AB010BD0004004020000020FEE7FEE76D
:100EB00070477047FFF7FCBA30B58FB028216846FD
:100EC000FFF782F914210AA8FFF77EF9012108042F
:100ED000CDE900100024029402250491CDE90750C9
:100EE0004FF4E01009906846FFF730FC08B172B685
:100EF000FEE70F20CDE90A054FF48060CDE90C40F4
:100F000002210AA80E94FFF755FB002801D072B603
:100F1000FEE70FB030BD7047F0B50268164B174CB6
:100F2000174D4FF08047984205D0B84203D0A042F9
:100F300001D0A84203D122F070064A683243984299
:100F400005D0B84203D0A04201D0A84203D122F478
:100F50004074CA6822434C6922F080022243026036
:100F60008A68C2620A688262984201D10969016393
:100F700001214161F0BD0000002C0140000400404F
:100F80000008004010B501F01F030121046A9940D8
:100F90008C430462016A9A401143016210BD000053
:100FA00030B5036A026A22F0010202624268846973
:100FB00024F073050C682C4323F002058B682B4347
:100FC0000A4DA8420BD123F00805CB6822F44072E9
:100FD0002B434D6923F0040315438A692A43426079
:100FE000846149684163036230BD0000002C014008
:100FF00030B5026A036A23F0100303624368846910
:101000000D6824F4E64444EA05248D6822F02002A9
:1010100042EA05120B4DA8420ED1CD6822F08002A3
:1010200042EA05124D6923F4406343EA85038D6962
:1010300022F0400243EA850343608461496881638A
:10104000026230BD002C014030B5036A026A22F40E
:10105000807202624268C46923F4007324F073054D
:101060000C682C438D6843EA05230C4DA8420ED131
:10107000CD6823F4006343EA05234D6922F440520E
:1010800042EA05128D6923F4806342EA0512426048
:10109000C4614968C163036230BD0000002C014097
:1010A00030B5046A026A22F4805202624268C3695F
:1010B0000D6823F4E64343EA05238D6824F40054C5
:1010C00044EA0534064DA84204D14D6922F4804219
:1010D00042EA85124260C36149680164046230BD1E
:1010E000002C0140FEE70907090E002804DB00F18F
:1010F000E02080F80014704700F00F0000F1E020BD
:1011000080F8141D70470000FFF7DAF9FFF7D4FEEE
:10111000FFF74AFEFFF792FE1848FFF77BFD184CD9
:1011200042F210764FF47A75C82000F02BF80021B7
:101130001248FFF7B1FD3046FFF7ACF801228021DD
:101140002046FFF7A9F900210C48FFF7F3FD2846D8
:10115000FFF7A0F800210948FFF79EFD3046FFF792
:1011600099F8002280212046FFF796F900210348D4
:10117000FFF7E0FD2846FFF78DF8D5E720000020B7
:10118000000801402DE9F0470446FFF7A9FADFF80F
:1011900080900546C9F80000204600F0D0F90022F2
:1011A0001C4B00F0F7F9042200F024FB1A4A1B4BF9
:1011B00000F040F81A4F044688463E68B06AB5FB16
:1011C000F0F000F0D3F94346224600F033F8C9E9C5
:1011D0000201B06AB5FBF0F000F0C8F943462246C0
:1011E00000F028F800F07EF9F0623E68B06AB5FBC6
:1011F000F0F000F0BBF92246434600F01BF800F087
:1012000071F9F860F06A40087063BDE8F08700008B
:101210001000002000001840CDCCCCCCCCCCFC3F42
:101220002000002002494FF0000000F0B1BA00BFDA
:101230000000F87F2DE9C04130B4DFF8A0C23CEADD
:10124000111418BF3CEA131400F0EC8081EA030586
:101250001CEA111444EAD57418BF1CEA131500F0F7
:10126000C780A4EB05044FF0004545EAC12145EADB
:10127000C32341EA505143EA525304F17F74994227
:1012800004F500344FEAC0204FEAC22208BF904262
:1012900000F09C804FEA13650FF24016765D4FEA2E
:1012A000134506FB05F7C7F1807706FB07F74FEA02
:1012B000D737A7FB03687642C8F58038A7FB06CE70
:1012C00038BFA8F1010807FB08E64FF0000EA6FBA7
:1012D000028CE6FB03CEDCF1000CCEF1004E38BFF1
:1012E000AEF1010EA6FB0C584FF000074FF00005C1
:1012F000E6FB0E87A1FB08C6A0FB07CE16EB0E0689
:1013000045F10005E1FB076515F1E04E7EBFA4F550
:1013100080345FEA46066D4116F1800745F100050D
:101320004FEA17274FEA066647EA0567A6F1DE4649
:10133000B6F1805F4FEA15251FD9384624F0010C1D
:1013400005EBC471BCF1FE6F01EB0C1102D8F0BCCF
:10135000BDE8008124425CBF01F5801E9EEAC47F87
:1013600002D4F0BCBDE80081244238D4F0BCA1F125
:10137000C041BDE8004100F005BA4FEAD22242EA7E
:1013800043524FEAD323A7FB02864FEAD02040EA1C
:10139000415007FB03661EEA0E0F4FEAD12105FB01
:1013A000026658BFA6EB0056B6EB00564FEA520E47
:1013B0004EEAC37E18EB0E0E56EB530EBDD518EB5E
:1013C00002085E417F1C55F10005B6E74FF4801519
:1013D0004FF000074FF000064FF00008ADE7F0BCFB
:1013E0004FF0000001F1C04101F00041BDE8008173
:1013F00011EA0C1F0CEA131500D00CE013EA0C1FC5
:1014000000F025804FF00000F0BC81EA030101F0FC
:101410000041BDE80081F0BCBDE8004181EA030164
:1014200000F0B0B9F0BCBDE8004170B500F05CF967
:10143000097EFC3E00F007B881EA03014FF000008E
:1014400001F00041704781EA030100F09BB9F0BC54
:10145000BDE800414FF0000021497047FFFDFBF956
:10146000F7F5F4F2F0EEEDEBE9E8E6E4E3E1E0DED7
:10147000DDDBDAD8D7D5D4D3D1D0CFCDCCCBCAC849
:10148000C7C6C5C4C2C1C0BFBEBDBCBBBAB9B8B770
:10149000B6B5B4B3B2B1B0AFAEADACABAAA9A8A863
:1014A000A7A6A5A4A3A3A2A1A09F9F9E9D9C9C9B31
:1014B0009A999998979796959594939392919190DC
:1014C0008F8F8E8E8D8C8C8B8B8A8989888887876D
:1014D0008685858484838382828181800000FF07E2
:1014E0000000F87F4FEA1153A3F58063D3F11E0388
:1014F000A8BFD3F1200C08DB4FF0004242EAC12222
:1015000052EA505232FA03F0704709420BD4102BC2
:10151000C4BF0020704703F5787CBCF1FF3F05D0C5
:101520004FF0FF3070474FF00000704770B500F08B
:10153000DBF800BF4992248000207047F0E710F0EC
:10154000004248BF4042B0FA80F310FA03F10AD0DB
:10155000C3F11D0303F580634FEA415002EB0352D0
:1015600002EBD12170474FF000007047B0FA80F3D2
:1015700010FA03F10AD0C3F11D0303F580634FEAAB
:1015800041504FEA035202EBD12170474FF0000067
:1015900070470000DFF848C170B51CEA111E1EBF7D
:1015A0001CEA13159EEA0C0F95EA0C0F00F06F80F1
:1015B00081EA030423EA4C134EEAD47E21EA4C115B
:1015C00041F4801143F48013AE44A1FB024CA0FB14
:1015D0000365AEF17F7E361955EB0C05A1FB034C7C
:1015E0004CF10003A0FB021C16EB0C06654153F105
:1015F0000003094218BF46F0010613F4007F0BD127
:101600004FEA03314FEA0530340341EA155140EA0D
:1016100016506FF003020AE04FEAC3214FEAC520DB
:10162000F40241EA555140EA56506FF0020202EBD3
:101630002E4201EB025585EACE710AD05FEA440CD6
:1016400018BF24F0004450F1000041F1000120EAED
:10165000D47040F2FE7C624500D270BDA84214BF37
:101660004FF080444FF04044002E08BF0024BEF1EC
:10167000806FA8BFA1F1C041BDE8704080F28280B8
:101680004FF0000001F1C04101F0004170479EEAB7
:101690000C0F0CEA131518BF95EA0C0F06D04FF08B
:1016A000000081EA030E0EF0004170BD00F01CF84E
:1016B0008900013E00F007B800F009B84FEA430C7A
:1016C0005FEA5C5C08D081EA030100F05BB84FEA96
:1016D000410C5FEA5C5CF6D14FF0000001497047B5
:1016E0000000FF070000F87F0EF1020E2EF0030E3F
:1016F0005EF8046B364205D4012A43EB030515F569
:10170000001F12D8012841EB010C1CF5001F0CD85A
:101710000ED14FEAD17C15F5001F0CEB4C0C0CF1EF
:10172000020C08BF4CEBD37C04E04FF0080C01E046
:101730004FEAD37C0CEB4C0526FA05F606F00706BB
:10174000B6F1040C06D20EEB860CBDE870404CF0EE
:10175000010C6047DFE80CF0090B02024FF000417A
:101760004FF00000A1F5002170BD19461046012878
:1017700051EB010418BFD4F5001484BF002001F020
:10178000004170BD0808A0F500114FEA3101704713
:101790000CF00F03092B08BF082000F059800A2B1A
:1017A0000BD0082B18BF704708BF1CF0400F0AD0A1
:1017B0004FF000004FF0000170471CF0400F18BFC1
:1017C0004FF0004070471CF0100F08D020F070431D
:1017D00000F07F4242EAD3014FEA4370704700F0C5
:1017E000604021F07F4242EA000201F07F4040EA7F
:1017F000727070474FF0FF0C4CF4E06C1CEA115310
:101800001CBF9CEA030C9445C2BFDA4201EB0251B3
:101810007047002B0DD0BCF1000F0FD0002A01F053
:101820000041A4BF41F0E04141F07F614FF0000072
:10183000704701F000414FF00000704750EA01335B
:101840004FF09B0C18BF4CF0806C7FF4EBAC7047F2
:101850001CF4801F11D01CF4E02F03D06FEACC31B0
:10186000490070474FF04050EFF3008222F0704281
:1018700042EA000282F3008870474FF00000704790
:10188000010202030405060708090A0B0C0D0E0FDE
:101890001010000000000000000001020304060711
:1018A000080900000000010203040000CC18000831
:1018B000000000202000000028010008EC180008AB
:1018C00020000020A80600004401000801000000DC
:1018D00010000000000000000024F40000000000E0
:0C18E000000000000000000000000000FC
:04000005080000ED02
:00000001FF
